{
  "address": "0xDc64a140Aa3E981100a9becA4E685f962f0cF6C9",
  "abi": [
    {
      "inputs": [
        {
          "internalType": "address",
          "name": "vrfCoordinatorV2",
          "type": "address"
        },
        {
          "internalType": "bytes32",
          "name": "gasLane",
          "type": "bytes32"
        },
        {
          "internalType": "uint64",
          "name": "subscriptionId",
          "type": "uint64"
        },
        {
          "internalType": "uint32",
          "name": "callbackGasLimit",
          "type": "uint32"
        },
        {
          "internalType": "string[3]",
          "name": "dogTokenUris",
          "type": "string[3]"
        },
        {
          "internalType": "uint256",
          "name": "mintFee",
          "type": "uint256"
        }
      ],
      "stateMutability": "nonpayable",
      "type": "constructor"
    },
    {
      "inputs": [
        {
          "internalType": "address",
          "name": "have",
          "type": "address"
        },
        {
          "internalType": "address",
          "name": "want",
          "type": "address"
        }
      ],
      "name": "OnlyCoordinatorCanFulfill",
      "type": "error"
    },
    {
      "inputs": [],
      "name": "RandomIpfsNft__NeedMoreETHSent",
      "type": "error"
    },
    {
      "inputs": [],
      "name": "RandomIpfsNft__WithdrawFailed",
      "type": "error"
    },
    {
      "anonymous": false,
      "inputs": [
        {
          "indexed": true,
          "internalType": "address",
          "name": "owner",
          "type": "address"
        },
        {
          "indexed": true,
          "internalType": "address",
          "name": "approved",
          "type": "address"
        },
        {
          "indexed": true,
          "internalType": "uint256",
          "name": "tokenId",
          "type": "uint256"
        }
      ],
      "name": "Approval",
      "type": "event"
    },
    {
      "anonymous": false,
      "inputs": [
        {
          "indexed": true,
          "internalType": "address",
          "name": "owner",
          "type": "address"
        },
        {
          "indexed": true,
          "internalType": "address",
          "name": "operator",
          "type": "address"
        },
        {
          "indexed": false,
          "internalType": "bool",
          "name": "approved",
          "type": "bool"
        }
      ],
      "name": "ApprovalForAll",
      "type": "event"
    },
    {
      "anonymous": false,
      "inputs": [
        {
          "indexed": false,
          "internalType": "enum RandomIpfsNft.Breed",
          "name": "dogBreed",
          "type": "uint8"
        },
        {
          "indexed": false,
          "internalType": "address",
          "name": "minter",
          "type": "address"
        }
      ],
      "name": "NftMinted",
      "type": "event"
    },
    {
      "anonymous": false,
      "inputs": [
        {
          "indexed": true,
          "internalType": "uint256",
          "name": "requestId",
          "type": "uint256"
        },
        {
          "indexed": true,
          "internalType": "address",
          "name": "requester",
          "type": "address"
        }
      ],
      "name": "NftRequested",
      "type": "event"
    },
    {
      "anonymous": false,
      "inputs": [
        {
          "indexed": true,
          "internalType": "address",
          "name": "previousOwner",
          "type": "address"
        },
        {
          "indexed": true,
          "internalType": "address",
          "name": "newOwner",
          "type": "address"
        }
      ],
      "name": "OwnershipTransferred",
      "type": "event"
    },
    {
      "anonymous": false,
      "inputs": [
        {
          "indexed": true,
          "internalType": "address",
          "name": "from",
          "type": "address"
        },
        {
          "indexed": true,
          "internalType": "address",
          "name": "to",
          "type": "address"
        },
        {
          "indexed": true,
          "internalType": "uint256",
          "name": "tokenId",
          "type": "uint256"
        }
      ],
      "name": "Transfer",
      "type": "event"
    },
    {
      "inputs": [
        {
          "internalType": "address",
          "name": "to",
          "type": "address"
        },
        {
          "internalType": "uint256",
          "name": "tokenId",
          "type": "uint256"
        }
      ],
      "name": "approve",
      "outputs": [],
      "stateMutability": "nonpayable",
      "type": "function"
    },
    {
      "inputs": [
        {
          "internalType": "address",
          "name": "owner",
          "type": "address"
        }
      ],
      "name": "balanceOf",
      "outputs": [
        {
          "internalType": "uint256",
          "name": "",
          "type": "uint256"
        }
      ],
      "stateMutability": "view",
      "type": "function"
    },
    {
      "inputs": [
        {
          "internalType": "uint256",
          "name": "tokenId",
          "type": "uint256"
        }
      ],
      "name": "getApproved",
      "outputs": [
        {
          "internalType": "address",
          "name": "",
          "type": "address"
        }
      ],
      "stateMutability": "view",
      "type": "function"
    },
    {
      "inputs": [
        {
          "internalType": "uint256",
          "name": "moddedRng",
          "type": "uint256"
        }
      ],
      "name": "getBreedFromModdedRng",
      "outputs": [
        {
          "internalType": "enum RandomIpfsNft.Breed",
          "name": "",
          "type": "uint8"
        }
      ],
      "stateMutability": "pure",
      "type": "function"
    },
    {
      "inputs": [],
      "name": "getChanceArray",
      "outputs": [
        {
          "internalType": "uint256[3]",
          "name": "",
          "type": "uint256[3]"
        }
      ],
      "stateMutability": "pure",
      "type": "function"
    },
    {
      "inputs": [
        {
          "internalType": "uint256",
          "name": "index",
          "type": "uint256"
        }
      ],
      "name": "getDogTokenUri",
      "outputs": [
        {
          "internalType": "string",
          "name": "",
          "type": "string"
        }
      ],
      "stateMutability": "view",
      "type": "function"
    },
    {
      "inputs": [],
      "name": "getMintFee",
      "outputs": [
        {
          "internalType": "uint256",
          "name": "",
          "type": "uint256"
        }
      ],
      "stateMutability": "view",
      "type": "function"
    },
    {
      "inputs": [],
      "name": "getTokenCounter",
      "outputs": [
        {
          "internalType": "uint256",
          "name": "",
          "type": "uint256"
        }
      ],
      "stateMutability": "view",
      "type": "function"
    },
    {
      "inputs": [
        {
          "internalType": "address",
          "name": "owner",
          "type": "address"
        },
        {
          "internalType": "address",
          "name": "operator",
          "type": "address"
        }
      ],
      "name": "isApprovedForAll",
      "outputs": [
        {
          "internalType": "bool",
          "name": "",
          "type": "bool"
        }
      ],
      "stateMutability": "view",
      "type": "function"
    },
    {
      "inputs": [],
      "name": "name",
      "outputs": [
        {
          "internalType": "string",
          "name": "",
          "type": "string"
        }
      ],
      "stateMutability": "view",
      "type": "function"
    },
    {
      "inputs": [],
      "name": "owner",
      "outputs": [
        {
          "internalType": "address",
          "name": "",
          "type": "address"
        }
      ],
      "stateMutability": "view",
      "type": "function"
    },
    {
      "inputs": [
        {
          "internalType": "uint256",
          "name": "tokenId",
          "type": "uint256"
        }
      ],
      "name": "ownerOf",
      "outputs": [
        {
          "internalType": "address",
          "name": "",
          "type": "address"
        }
      ],
      "stateMutability": "view",
      "type": "function"
    },
    {
      "inputs": [
        {
          "internalType": "uint256",
          "name": "requestId",
          "type": "uint256"
        },
        {
          "internalType": "uint256[]",
          "name": "randomWords",
          "type": "uint256[]"
        }
      ],
      "name": "rawFulfillRandomWords",
      "outputs": [],
      "stateMutability": "nonpayable",
      "type": "function"
    },
    {
      "inputs": [],
      "name": "renounceOwnership",
      "outputs": [],
      "stateMutability": "nonpayable",
      "type": "function"
    },
    {
      "inputs": [],
      "name": "requestNft",
      "outputs": [
        {
          "internalType": "uint256",
          "name": "",
          "type": "uint256"
        }
      ],
      "stateMutability": "payable",
      "type": "function"
    },
    {
      "inputs": [
        {
          "internalType": "address",
          "name": "from",
          "type": "address"
        },
        {
          "internalType": "address",
          "name": "to",
          "type": "address"
        },
        {
          "internalType": "uint256",
          "name": "tokenId",
          "type": "uint256"
        }
      ],
      "name": "safeTransferFrom",
      "outputs": [],
      "stateMutability": "nonpayable",
      "type": "function"
    },
    {
      "inputs": [
        {
          "internalType": "address",
          "name": "from",
          "type": "address"
        },
        {
          "internalType": "address",
          "name": "to",
          "type": "address"
        },
        {
          "internalType": "uint256",
          "name": "tokenId",
          "type": "uint256"
        },
        {
          "internalType": "bytes",
          "name": "data",
          "type": "bytes"
        }
      ],
      "name": "safeTransferFrom",
      "outputs": [],
      "stateMutability": "nonpayable",
      "type": "function"
    },
    {
      "inputs": [
        {
          "internalType": "address",
          "name": "operator",
          "type": "address"
        },
        {
          "internalType": "bool",
          "name": "approved",
          "type": "bool"
        }
      ],
      "name": "setApprovalForAll",
      "outputs": [],
      "stateMutability": "nonpayable",
      "type": "function"
    },
    {
      "inputs": [
        {
          "internalType": "bytes4",
          "name": "interfaceId",
          "type": "bytes4"
        }
      ],
      "name": "supportsInterface",
      "outputs": [
        {
          "internalType": "bool",
          "name": "",
          "type": "bool"
        }
      ],
      "stateMutability": "view",
      "type": "function"
    },
    {
      "inputs": [],
      "name": "symbol",
      "outputs": [
        {
          "internalType": "string",
          "name": "",
          "type": "string"
        }
      ],
      "stateMutability": "view",
      "type": "function"
    },
    {
      "inputs": [
        {
          "internalType": "uint256",
          "name": "tokenId",
          "type": "uint256"
        }
      ],
      "name": "tokenURI",
      "outputs": [
        {
          "internalType": "string",
          "name": "",
          "type": "string"
        }
      ],
      "stateMutability": "view",
      "type": "function"
    },
    {
      "inputs": [
        {
          "internalType": "address",
          "name": "from",
          "type": "address"
        },
        {
          "internalType": "address",
          "name": "to",
          "type": "address"
        },
        {
          "internalType": "uint256",
          "name": "tokenId",
          "type": "uint256"
        }
      ],
      "name": "transferFrom",
      "outputs": [],
      "stateMutability": "nonpayable",
      "type": "function"
    },
    {
      "inputs": [
        {
          "internalType": "address",
          "name": "newOwner",
          "type": "address"
        }
      ],
      "name": "transferOwnership",
      "outputs": [],
      "stateMutability": "nonpayable",
      "type": "function"
    },
    {
      "inputs": [],
      "name": "withdraw",
      "outputs": [],
      "stateMutability": "nonpayable",
      "type": "function"
    }
  ],
  "transactionHash": "0x8d9bb0ec44e1474f43ca27127b0f909e1c72cebbbacf163ca755be77d89c4d40",
  "args": [
    "0x5FbDB2315678afecb367f032d93F642f64180aa3",
    "0xd89b2bf150e3b9e13446986e571fb9cab24b13cea0a43ea20a6049a85cc807cc",
    "1",
    "500000",
    [
      "ipfs://QmaVkBn2tKmjbhphU7eyztbvSQU5EXDdqRyXZtRhSGgJGo",
      "ipfs://QmYQC5aGZu2PTH8XzbJrbDnvhj3gVs7ya33H9mqUNvST3d",
      "ipfs://QmZYmH5iDbD6v3U2ixoVAjioSzvWJszDzYdbeCLquGSpVm"
    ],
    "10000000000000000"
  ],
  "numDeployments": 1,
  "solcInputHash": "b0a730e3bda2fb8d46d45b2bd113bb21",
  "bytecode": "0x6101406040523480156200001257600080fd5b50604051620041ce380380620041ce8339818101604052810190620000389190620005d2565b856040518060400160405280600f81526020017f52616e646f6d2049504653204e465400000000000000000000000000000000008152506040518060400160405280600381526020017f52494e00000000000000000000000000000000000000000000000000000000008152508160009080519060200190620000bd929190620002a6565b508060019080519060200190620000d6929190620002a6565b5050508073ffffffffffffffffffffffffffffffffffffffff1660808173ffffffffffffffffffffffffffffffffffffffff1660601b81525050506200013162000125620001d860201b60201c565b620001e060201b60201c565b60006009819055508460c081815250508263ffffffff166101008163ffffffff1660e01b815250508367ffffffffffffffff1660e08167ffffffffffffffff1660c01b815250508573ffffffffffffffffffffffffffffffffffffffff1660a08173ffffffffffffffffffffffffffffffffffffffff1660601b8152505081600a906003620001c292919062000337565b508061012081815250505050505050506200092d565b600033905090565b6000600760009054906101000a900473ffffffffffffffffffffffffffffffffffffffff16905081600760006101000a81548173ffffffffffffffffffffffffffffffffffffffff021916908373ffffffffffffffffffffffffffffffffffffffff1602179055508173ffffffffffffffffffffffffffffffffffffffff168173ffffffffffffffffffffffffffffffffffffffff167f8be0079c531659141344cd1fd0a4f28419497f9722a3daafe3b4186f6b6457e060405160405180910390a35050565b828054620002b490620007b7565b90600052602060002090601f016020900481019282620002d8576000855562000324565b82601f10620002f357805160ff191683800117855562000324565b8280016001018555821562000324579182015b828111156200032357825182559160200191906001019062000306565b5b50905062000333919062000391565b5090565b82600381019282156200037e579160200282015b828111156200037d5782518290805190602001906200036c929190620002a6565b50916020019190600101906200034b565b5b5090506200038d9190620003b0565b5090565b5b80821115620003ac57600081600090555060010162000392565b5090565b5b80821115620003d45760008181620003ca9190620003d8565b50600101620003b1565b5090565b508054620003e690620007b7565b6000825580601f10620003fa57506200041b565b601f0160209004906000526020600020908101906200041a919062000391565b5b50565b6000620004356200042f84620006b6565b6200068d565b9050808285602086028201111562000452576200045162000886565b5b60005b85811015620004a757815167ffffffffffffffff8111156200047c576200047b62000881565b5b8086016200048b89826200055a565b8552602085019450602084019350505060018101905062000455565b5050509392505050565b6000620004c8620004c284620006df565b6200068d565b905082815260208101848484011115620004e757620004e66200088b565b5b620004f484828562000781565b509392505050565b6000815190506200050d81620008ab565b92915050565b600082601f8301126200052b576200052a62000881565b5b60036200053a8482856200041e565b91505092915050565b6000815190506200055481620008c5565b92915050565b600082601f83011262000572576200057162000881565b5b815162000584848260208601620004b1565b91505092915050565b6000815190506200059e81620008df565b92915050565b600081519050620005b581620008f9565b92915050565b600081519050620005cc8162000913565b92915050565b60008060008060008060c08789031215620005f257620005f162000895565b5b60006200060289828a01620004fc565b96505060206200061589828a0162000543565b95505060406200062889828a01620005bb565b94505060606200063b89828a01620005a4565b935050608087015167ffffffffffffffff8111156200065f576200065e62000890565b5b6200066d89828a0162000513565b92505060a06200068089828a016200058d565b9150509295509295509295565b600062000699620006ac565b9050620006a78282620007ed565b919050565b6000604051905090565b600067ffffffffffffffff821115620006d457620006d362000852565b5b602082029050919050565b600067ffffffffffffffff821115620006fd57620006fc62000852565b5b62000708826200089a565b9050602081019050919050565b6000620007228262000733565b9050919050565b6000819050919050565b600073ffffffffffffffffffffffffffffffffffffffff82169050919050565b6000819050919050565b600063ffffffff82169050919050565b600067ffffffffffffffff82169050919050565b60005b83811015620007a157808201518184015260208101905062000784565b83811115620007b1576000848401525b50505050565b60006002820490506001821680620007d057607f821691505b60208210811415620007e757620007e662000823565b5b50919050565b620007f8826200089a565b810181811067ffffffffffffffff821117156200081a576200081962000852565b5b80604052505050565b7f4e487b7100000000000000000000000000000000000000000000000000000000600052602260045260246000fd5b7f4e487b7100000000000000000000000000000000000000000000000000000000600052604160045260246000fd5b600080fd5b600080fd5b600080fd5b600080fd5b600080fd5b6000601f19601f8301169050919050565b620008b68162000715565b8114620008c257600080fd5b50565b620008d08162000729565b8114620008dc57600080fd5b50565b620008ea8162000753565b8114620008f657600080fd5b50565b62000904816200075d565b81146200091057600080fd5b50565b6200091e816200076d565b81146200092a57600080fd5b50565b60805160601c60a05160601c60c05160e05160c01c6101005160e01c610120516138406200098e60003960008181610cc30152610e2901526000505060005050600050506000610edd01526000818161087901526108cd01526138406000f3fe60806040526004361061014b5760003560e01c8063715018a6116100b6578063a51cccf31161006f578063a51cccf31461047e578063aa152491146104bb578063b88d4fde146104d9578063c87b56dd14610502578063e985e9c51461053f578063f2fde38b1461057c5761014b565b8063715018a614610380578063741a63fa146103975780637a5caab3146103d45780638da5cb5b146103ff57806395d89b411461042a578063a22cb465146104555761014b565b80633ccfd60b116101085780633ccfd60b1461027057806342842e0e146102875780635dacf5f4146102b05780636352211e146102db5780636e02007d1461031857806370a08231146103435761014b565b806301ffc9a71461015057806306fdde031461018d578063081812fc146101b8578063095ea7b3146101f55780631fe543e31461021e57806323b872dd14610247575b600080fd5b34801561015c57600080fd5b5061017760048036038101906101729190612771565b6105a5565b6040516101849190612ca2565b60405180910390f35b34801561019957600080fd5b506101a2610687565b6040516101af9190612d01565b60405180910390f35b3480156101c457600080fd5b506101df60048036038101906101da91906127cb565b610719565b6040516101ec9190612bf7565b60405180910390f35b34801561020157600080fd5b5061021c60048036038101906102179190612731565b61075f565b005b34801561022a57600080fd5b50610245600480360381019061024091906127f8565b610877565b005b34801561025357600080fd5b5061026e6004803603810190610269919061261b565b610937565b005b34801561027c57600080fd5b50610285610997565b005b34801561029357600080fd5b506102ae60048036038101906102a9919061261b565b610a45565b005b3480156102bc57600080fd5b506102c5610a65565b6040516102d29190612c87565b60405180910390f35b3480156102e757600080fd5b5061030260048036038101906102fd91906127cb565b610a90565b60405161030f9190612bf7565b60405180910390f35b34801561032457600080fd5b5061032d610b42565b60405161033a9190612f13565b60405180910390f35b34801561034f57600080fd5b5061036a600480360381019061036591906125ae565b610b4c565b6040516103779190612f13565b60405180910390f35b34801561038c57600080fd5b50610395610c04565b005b3480156103a357600080fd5b506103be60048036038101906103b991906127cb565b610c18565b6040516103cb9190612d01565b60405180910390f35b3480156103e057600080fd5b506103e9610cbf565b6040516103f69190612f13565b60405180910390f35b34801561040b57600080fd5b50610414610ce7565b6040516104219190612bf7565b60405180910390f35b34801561043657600080fd5b5061043f610d11565b60405161044c9190612d01565b60405180910390f35b34801561046157600080fd5b5061047c600480360381019061047791906126f1565b610da3565b005b34801561048a57600080fd5b506104a560048036038101906104a091906127cb565b610db9565b6040516104b29190612cbd565b60405180910390f35b6104c3610e25565b6040516104d09190612f13565b60405180910390f35b3480156104e557600080fd5b5061050060048036038101906104fb919061266e565b610fa4565b005b34801561050e57600080fd5b50610529600480360381019061052491906127cb565b611006565b6040516105369190612d01565b60405180910390f35b34801561054b57600080fd5b50610566600480360381019061056191906125db565b611119565b6040516105739190612ca2565b60405180910390f35b34801561058857600080fd5b506105a3600480360381019061059e91906125ae565b6111ad565b005b60007f80ac58cd000000000000000000000000000000000000000000000000000000007bffffffffffffffffffffffffffffffffffffffffffffffffffffffff1916827bffffffffffffffffffffffffffffffffffffffffffffffffffffffff1916148061067057507f5b5e139f000000000000000000000000000000000000000000000000000000007bffffffffffffffffffffffffffffffffffffffffffffffffffffffff1916827bffffffffffffffffffffffffffffffffffffffffffffffffffffffff1916145b80610680575061067f82611231565b5b9050919050565b606060008054610696906131c1565b80601f01602080910402602001604051908101604052809291908181526020018280546106c2906131c1565b801561070f5780601f106106e45761010080835404028352916020019161070f565b820191906000526020600020905b8154815290600101906020018083116106f257829003601f168201915b5050505050905090565b60006107248261129b565b6004600083815260200190815260200160002060009054906101000a900473ffffffffffffffffffffffffffffffffffffffff169050919050565b600061076a82610a90565b90508073ffffffffffffffffffffffffffffffffffffffff168373ffffffffffffffffffffffffffffffffffffffff1614156107db576040517f08c379a00000000000000000000000000000000000000000000000000000000081526004016107d290612ed3565b60405180910390fd5b8073ffffffffffffffffffffffffffffffffffffffff166107fa6112e6565b73ffffffffffffffffffffffffffffffffffffffff1614806108295750610828816108236112e6565b611119565b5b610868576040517f08c379a000000000000000000000000000000000000000000000000000000000815260040161085f90612e53565b60405180910390fd5b61087283836112ee565b505050565b7f000000000000000000000000000000000000000000000000000000000000000073ffffffffffffffffffffffffffffffffffffffff163373ffffffffffffffffffffffffffffffffffffffff161461092957337f00000000000000000000000000000000000000000000000000000000000000006040517f1cf993f4000000000000000000000000000000000000000000000000000000008152600401610920929190612c12565b60405180910390fd5b61093382826113a7565b5050565b6109486109426112e6565b82611534565b610987576040517f08c379a000000000000000000000000000000000000000000000000000000000815260040161097e90612ef3565b60405180910390fd5b6109928383836115c9565b505050565b61099f611830565b60003373ffffffffffffffffffffffffffffffffffffffff16476040516109c590612be2565b60006040518083038185875af1925050503d8060008114610a02576040519150601f19603f3d011682016040523d82523d6000602084013e610a07565b606091505b5050905080610a42576040517f61746da100000000000000000000000000000000000000000000000000000000815260040160405180910390fd5b50565b610a6083838360405180602001604052806000815250610fa4565b505050565b610a6d612372565b6040518060600160405280600a8152602001601e81526020016064815250905090565b6000806002600084815260200190815260200160002060009054906101000a900473ffffffffffffffffffffffffffffffffffffffff169050600073ffffffffffffffffffffffffffffffffffffffff168173ffffffffffffffffffffffffffffffffffffffff161415610b39576040517f08c379a0000000000000000000000000000000000000000000000000000000008152600401610b3090612eb3565b60405180910390fd5b80915050919050565b6000600954905090565b60008073ffffffffffffffffffffffffffffffffffffffff168273ffffffffffffffffffffffffffffffffffffffff161415610bbd576040517f08c379a0000000000000000000000000000000000000000000000000000000008152600401610bb490612e13565b60405180910390fd5b600360008373ffffffffffffffffffffffffffffffffffffffff1673ffffffffffffffffffffffffffffffffffffffff168152602001908152602001600020549050919050565b610c0c611830565b610c1660006118ae565b565b6060600a8260038110610c2e57610c2d61335a565b5b018054610c3a906131c1565b80601f0160208091040260200160405190810160405280929190818152602001828054610c66906131c1565b8015610cb35780601f10610c8857610100808354040283529160200191610cb3565b820191906000526020600020905b815481529060010190602001808311610c9657829003601f168201915b50505050509050919050565b60007f0000000000000000000000000000000000000000000000000000000000000000905090565b6000600760009054906101000a900473ffffffffffffffffffffffffffffffffffffffff16905090565b606060018054610d20906131c1565b80601f0160208091040260200160405190810160405280929190818152602001828054610d4c906131c1565b8015610d995780601f10610d6e57610100808354040283529160200191610d99565b820191906000526020600020905b815481529060010190602001808311610d7c57829003601f168201915b5050505050905090565b610db5610dae6112e6565b8383611974565b5050565b6000610dc3610a65565b600060038110610dd657610dd561335a565b5b6020020151821015610deb5760009050610e20565b610df3610a65565b600160038110610e0657610e0561335a565b5b6020020151821015610e1b5760019050610e20565b600290505b919050565b60007f0000000000000000000000000000000000000000000000000000000000000000341015610e81576040517fb90f491000000000000000000000000000000000000000000000000000000000815260040160405180910390fd5b610ebf6040518060400160405280601481526020017f52657175657374696e672072616e646f6d2e2e2e000000000000000000000000815250611ae1565b610f016040518060600160405280602181526020016137ea602191397f0000000000000000000000000000000000000000000000000000000000000000611b7a565b600060019050336008600083815260200190815260200160002060006101000a81548173ffffffffffffffffffffffffffffffffffffffff021916908373ffffffffffffffffffffffffffffffffffffffff1602179055503373ffffffffffffffffffffffffffffffffffffffff16817ff873236e6cc0ecc5be1a9a35c95ee5b8d1ac4cc7bfef0cc5060391d6cc98e26b60405160405180910390a38091505090565b610fb5610faf6112e6565b83611534565b610ff4576040517f08c379a0000000000000000000000000000000000000000000000000000000008152600401610feb90612ef3565b60405180910390fd5b61100084848484611c16565b50505050565b60606110118261129b565b6000600660008481526020019081526020016000208054611031906131c1565b80601f016020809104026020016040519081016040528092919081815260200182805461105d906131c1565b80156110aa5780601f1061107f576101008083540402835291602001916110aa565b820191906000526020600020905b81548152906001019060200180831161108d57829003601f168201915b5050505050905060006110bb611c72565b90506000815114156110d1578192505050611114565b6000825111156111065780826040516020016110ee929190612bbe565b60405160208183030381529060405292505050611114565b61110f84611c89565b925050505b919050565b6000600560008473ffffffffffffffffffffffffffffffffffffffff1673ffffffffffffffffffffffffffffffffffffffff16815260200190815260200160002060008373ffffffffffffffffffffffffffffffffffffffff1673ffffffffffffffffffffffffffffffffffffffff16815260200190815260200160002060009054906101000a900460ff16905092915050565b6111b5611830565b600073ffffffffffffffffffffffffffffffffffffffff168173ffffffffffffffffffffffffffffffffffffffff161415611225576040517f08c379a000000000000000000000000000000000000000000000000000000000815260040161121c90612d73565b60405180910390fd5b61122e816118ae565b50565b60007f01ffc9a7000000000000000000000000000000000000000000000000000000007bffffffffffffffffffffffffffffffffffffffffffffffffffffffff1916827bffffffffffffffffffffffffffffffffffffffffffffffffffffffff1916149050919050565b6112a481611cf1565b6112e3576040517f08c379a00000000000000000000000000000000000000000000000000000000081526004016112da90612eb3565b60405180910390fd5b50565b600033905090565b816004600083815260200190815260200160002060006101000a81548173ffffffffffffffffffffffffffffffffffffffff021916908373ffffffffffffffffffffffffffffffffffffffff160217905550808273ffffffffffffffffffffffffffffffffffffffff1661136183610a90565b73ffffffffffffffffffffffffffffffffffffffff167f8c5be1e5ebec7d5bd14f71427d1e84f3dd0314c0f7b2291e5b200ac8c7c3b92560405160405180910390a45050565b60006008600084815260200190815260200160002060009054906101000a900473ffffffffffffffffffffffffffffffffffffffff16905060006064836000815181106113f7576113f661335a565b5b6020026020010151611409919061326d565b9050600061141682610db9565b905061142483600954611d5d565b6114df600954600a83600281111561143f5761143e6132fc565b5b600381106114505761144f61335a565b5b01805461145c906131c1565b80601f0160208091040260200160405190810160405280929190818152602001828054611488906131c1565b80156114d55780601f106114aa576101008083540402835291602001916114d5565b820191906000526020600020905b8154815290600101906020018083116114b857829003601f168201915b5050505050611d7b565b60016009546114ee919061302b565b6009819055507f8a269f26b688e110e9cbd887d163dab35cae678fa353a0292de532c0cac1ecdc8184604051611525929190612cd8565b60405180910390a15050505050565b60008061154083610a90565b90508073ffffffffffffffffffffffffffffffffffffffff168473ffffffffffffffffffffffffffffffffffffffff16148061158257506115818185611119565b5b806115c057508373ffffffffffffffffffffffffffffffffffffffff166115a884610719565b73ffffffffffffffffffffffffffffffffffffffff16145b91505092915050565b8273ffffffffffffffffffffffffffffffffffffffff166115e982610a90565b73ffffffffffffffffffffffffffffffffffffffff161461163f576040517f08c379a000000000000000000000000000000000000000000000000000000000815260040161163690612d93565b60405180910390fd5b600073ffffffffffffffffffffffffffffffffffffffff168273ffffffffffffffffffffffffffffffffffffffff1614156116af576040517f08c379a00000000000000000000000000000000000000000000000000000000081526004016116a690612dd3565b60405180910390fd5b6116ba838383611def565b6116c56000826112ee565b6001600360008573ffffffffffffffffffffffffffffffffffffffff1673ffffffffffffffffffffffffffffffffffffffff168152602001908152602001600020600082825461171591906130b2565b925050819055506001600360008473ffffffffffffffffffffffffffffffffffffffff1673ffffffffffffffffffffffffffffffffffffffff168152602001908152602001600020600082825461176c919061302b565b92505081905550816002600083815260200190815260200160002060006101000a81548173ffffffffffffffffffffffffffffffffffffffff021916908373ffffffffffffffffffffffffffffffffffffffff160217905550808273ffffffffffffffffffffffffffffffffffffffff168473ffffffffffffffffffffffffffffffffffffffff167fddf252ad1be2c89b69c2b068fc378daa952ba7f163c4a11628f55a4df523b3ef60405160405180910390a461182b838383611df4565b505050565b6118386112e6565b73ffffffffffffffffffffffffffffffffffffffff16611856610ce7565b73ffffffffffffffffffffffffffffffffffffffff16146118ac576040517f08c379a00000000000000000000000000000000000000000000000000000000081526004016118a390612e93565b60405180910390fd5b565b6000600760009054906101000a900473ffffffffffffffffffffffffffffffffffffffff16905081600760006101000a81548173ffffffffffffffffffffffffffffffffffffffff021916908373ffffffffffffffffffffffffffffffffffffffff1602179055508173ffffffffffffffffffffffffffffffffffffffff168173ffffffffffffffffffffffffffffffffffffffff167f8be0079c531659141344cd1fd0a4f28419497f9722a3daafe3b4186f6b6457e060405160405180910390a35050565b8173ffffffffffffffffffffffffffffffffffffffff168373ffffffffffffffffffffffffffffffffffffffff1614156119e3576040517f08c379a00000000000000000000000000000000000000000000000000000000081526004016119da90612df3565b60405180910390fd5b80600560008573ffffffffffffffffffffffffffffffffffffffff1673ffffffffffffffffffffffffffffffffffffffff16815260200190815260200160002060008473ffffffffffffffffffffffffffffffffffffffff1673ffffffffffffffffffffffffffffffffffffffff16815260200190815260200160002060006101000a81548160ff0219169083151502179055508173ffffffffffffffffffffffffffffffffffffffff168373ffffffffffffffffffffffffffffffffffffffff167f17307eab39ab6107e8899845ad3d59bd9653f200f220920489ca2b5937696c3183604051611ad49190612ca2565b60405180910390a3505050565b611b7781604051602401611af59190612d01565b6040516020818303038152906040527f41304fac000000000000000000000000000000000000000000000000000000007bffffffffffffffffffffffffffffffffffffffffffffffffffffffff19166020820180517bffffffffffffffffffffffffffffffffffffffffffffffffffffffff8381831617835250505050611df9565b50565b611c128282604051602401611b90929190612d23565b6040516020818303038152906040527f319af333000000000000000000000000000000000000000000000000000000007bffffffffffffffffffffffffffffffffffffffffffffffffffffffff19166020820180517bffffffffffffffffffffffffffffffffffffffffffffffffffffffff8381831617835250505050611df9565b5050565b611c218484846115c9565b611c2d84848484611e22565b611c6c576040517f08c379a0000000000000000000000000000000000000000000000000000000008152600401611c6390612d53565b60405180910390fd5b50505050565b606060405180602001604052806000815250905090565b6060611c948261129b565b6000611c9e611c72565b90506000815111611cbe5760405180602001604052806000815250611ce9565b80611cc884611fb9565b604051602001611cd9929190612bbe565b6040516020818303038152906040525b915050919050565b60008073ffffffffffffffffffffffffffffffffffffffff166002600084815260200190815260200160002060009054906101000a900473ffffffffffffffffffffffffffffffffffffffff1673ffffffffffffffffffffffffffffffffffffffff1614159050919050565b611d7782826040518060200160405280600081525061211a565b5050565b611d8482611cf1565b611dc3576040517f08c379a0000000000000000000000000000000000000000000000000000000008152600401611dba90612e33565b60405180910390fd5b80600660008481526020019081526020016000209080519060200190611dea929190612394565b505050565b505050565b505050565b60008151905060006a636f6e736f6c652e6c6f679050602083016000808483855afa5050505050565b6000611e438473ffffffffffffffffffffffffffffffffffffffff16612175565b15611fac578373ffffffffffffffffffffffffffffffffffffffff1663150b7a02611e6c6112e6565b8786866040518563ffffffff1660e01b8152600401611e8e9493929190612c3b565b602060405180830381600087803b158015611ea857600080fd5b505af1925050508015611ed957506040513d601f19601f82011682018060405250810190611ed6919061279e565b60015b611f5c573d8060008114611f09576040519150601f19603f3d011682016040523d82523d6000602084013e611f0e565b606091505b50600081511415611f54576040517f08c379a0000000000000000000000000000000000000000000000000000000008152600401611f4b90612d53565b60405180910390fd5b805181602001fd5b63150b7a0260e01b7bffffffffffffffffffffffffffffffffffffffffffffffffffffffff1916817bffffffffffffffffffffffffffffffffffffffffffffffffffffffff191614915050611fb1565b600190505b949350505050565b60606000821415612001576040518060400160405280600181526020017f30000000000000000000000000000000000000000000000000000000000000008152509050612115565b600082905060005b6000821461203357808061201c90613224565b915050600a8261202c9190613081565b9150612009565b60008167ffffffffffffffff81111561204f5761204e613389565b5b6040519080825280601f01601f1916602001820160405280156120815781602001600182028036833780820191505090505b5090505b6000851461210e5760018261209a91906130b2565b9150600a856120a9919061326d565b60306120b5919061302b565b60f81b8183815181106120cb576120ca61335a565b5b60200101907effffffffffffffffffffffffffffffffffffffffffffffffffffffffffffff1916908160001a905350600a856121079190613081565b9450612085565b8093505050505b919050565b6121248383612198565b6121316000848484611e22565b612170576040517f08c379a000000000000000000000000000000000000000000000000000000000815260040161216790612d53565b60405180910390fd5b505050565b6000808273ffffffffffffffffffffffffffffffffffffffff163b119050919050565b600073ffffffffffffffffffffffffffffffffffffffff168273ffffffffffffffffffffffffffffffffffffffff161415612208576040517f08c379a00000000000000000000000000000000000000000000000000000000081526004016121ff90612e73565b60405180910390fd5b61221181611cf1565b15612251576040517f08c379a000000000000000000000000000000000000000000000000000000000815260040161224890612db3565b60405180910390fd5b61225d60008383611def565b6001600360008473ffffffffffffffffffffffffffffffffffffffff1673ffffffffffffffffffffffffffffffffffffffff16815260200190815260200160002060008282546122ad919061302b565b92505081905550816002600083815260200190815260200160002060006101000a81548173ffffffffffffffffffffffffffffffffffffffff021916908373ffffffffffffffffffffffffffffffffffffffff160217905550808273ffffffffffffffffffffffffffffffffffffffff16600073ffffffffffffffffffffffffffffffffffffffff167fddf252ad1be2c89b69c2b068fc378daa952ba7f163c4a11628f55a4df523b3ef60405160405180910390a461236e60008383611df4565b5050565b6040518060600160405280600390602082028036833780820191505090505090565b8280546123a0906131c1565b90600052602060002090601f0160209004810192826123c25760008555612409565b82601f106123db57805160ff1916838001178555612409565b82800160010185558215612409579182015b828111156124085782518255916020019190600101906123ed565b5b509050612416919061241a565b5090565b5b8082111561243357600081600090555060010161241b565b5090565b600061244a61244584612f53565b612f2e565b9050808382526020820190508285602086028201111561246d5761246c6133bd565b5b60005b8581101561249d57816124838882612599565b845260208401935060208301925050600181019050612470565b5050509392505050565b60006124ba6124b584612f7f565b612f2e565b9050828152602081018484840111156124d6576124d56133c2565b5b6124e184828561317f565b509392505050565b6000813590506124f88161378d565b92915050565b600082601f830112612513576125126133b8565b5b8135612523848260208601612437565b91505092915050565b60008135905061253b816137a4565b92915050565b600081359050612550816137bb565b92915050565b600081519050612565816137bb565b92915050565b600082601f8301126125805761257f6133b8565b5b81356125908482602086016124a7565b91505092915050565b6000813590506125a8816137d2565b92915050565b6000602082840312156125c4576125c36133cc565b5b60006125d2848285016124e9565b91505092915050565b600080604083850312156125f2576125f16133cc565b5b6000612600858286016124e9565b9250506020612611858286016124e9565b9150509250929050565b600080600060608486031215612634576126336133cc565b5b6000612642868287016124e9565b9350506020612653868287016124e9565b925050604061266486828701612599565b9150509250925092565b60008060008060808587031215612688576126876133cc565b5b6000612696878288016124e9565b94505060206126a7878288016124e9565b93505060406126b887828801612599565b925050606085013567ffffffffffffffff8111156126d9576126d86133c7565b5b6126e58782880161256b565b91505092959194509250565b60008060408385031215612708576127076133cc565b5b6000612716858286016124e9565b92505060206127278582860161252c565b9150509250929050565b60008060408385031215612748576127476133cc565b5b6000612756858286016124e9565b925050602061276785828601612599565b9150509250929050565b600060208284031215612787576127866133cc565b5b600061279584828501612541565b91505092915050565b6000602082840312156127b4576127b36133cc565b5b60006127c284828501612556565b91505092915050565b6000602082840312156127e1576127e06133cc565b5b60006127ef84828501612599565b91505092915050565b6000806040838503121561280f5761280e6133cc565b5b600061281d85828601612599565b925050602083013567ffffffffffffffff81111561283e5761283d6133c7565b5b61284a858286016124fe565b9150509250929050565b60006128608383612ba0565b60208301905092915050565b612875816130e6565b82525050565b61288481612fba565b61288e8184612fe8565b925061289982612fb0565b8060005b838110156128ca5781516128b18782612854565b96506128bc83612fdb565b92505060018101905061289d565b505050505050565b6128db816130f8565b82525050565b60006128ec82612fc5565b6128f68185612ff3565b935061290681856020860161318e565b61290f816133d1565b840191505092915050565b6129238161316d565b82525050565b600061293482612fd0565b61293e818561300f565b935061294e81856020860161318e565b612957816133d1565b840191505092915050565b600061296d82612fd0565b6129778185613020565b935061298781856020860161318e565b80840191505092915050565b60006129a060328361300f565b91506129ab826133e2565b604082019050919050565b60006129c360268361300f565b91506129ce82613431565b604082019050919050565b60006129e660258361300f565b91506129f182613480565b604082019050919050565b6000612a09601c8361300f565b9150612a14826134cf565b602082019050919050565b6000612a2c60248361300f565b9150612a37826134f8565b604082019050919050565b6000612a4f60198361300f565b9150612a5a82613547565b602082019050919050565b6000612a7260298361300f565b9150612a7d82613570565b604082019050919050565b6000612a95602e8361300f565b9150612aa0826135bf565b604082019050919050565b6000612ab8603e8361300f565b9150612ac38261360e565b604082019050919050565b6000612adb60208361300f565b9150612ae68261365d565b602082019050919050565b6000612afe60208361300f565b9150612b0982613686565b602082019050919050565b6000612b2160188361300f565b9150612b2c826136af565b602082019050919050565b6000612b4460218361300f565b9150612b4f826136d8565b604082019050919050565b6000612b67600083613004565b9150612b7282613727565b600082019050919050565b6000612b8a602e8361300f565b9150612b958261372a565b604082019050919050565b612ba981613163565b82525050565b612bb881613163565b82525050565b6000612bca8285612962565b9150612bd68284612962565b91508190509392505050565b6000612bed82612b5a565b9150819050919050565b6000602082019050612c0c600083018461286c565b92915050565b6000604082019050612c27600083018561286c565b612c34602083018461286c565b9392505050565b6000608082019050612c50600083018761286c565b612c5d602083018661286c565b612c6a6040830185612baf565b8181036060830152612c7c81846128e1565b905095945050505050565b6000606082019050612c9c600083018461287b565b92915050565b6000602082019050612cb760008301846128d2565b92915050565b6000602082019050612cd2600083018461291a565b92915050565b6000604082019050612ced600083018561291a565b612cfa602083018461286c565b9392505050565b60006020820190508181036000830152612d1b8184612929565b905092915050565b60006040820190508181036000830152612d3d8185612929565b9050612d4c602083018461286c565b9392505050565b60006020820190508181036000830152612d6c81612993565b9050919050565b60006020820190508181036000830152612d8c816129b6565b9050919050565b60006020820190508181036000830152612dac816129d9565b9050919050565b60006020820190508181036000830152612dcc816129fc565b9050919050565b60006020820190508181036000830152612dec81612a1f565b9050919050565b60006020820190508181036000830152612e0c81612a42565b9050919050565b60006020820190508181036000830152612e2c81612a65565b9050919050565b60006020820190508181036000830152612e4c81612a88565b9050919050565b60006020820190508181036000830152612e6c81612aab565b9050919050565b60006020820190508181036000830152612e8c81612ace565b9050919050565b60006020820190508181036000830152612eac81612af1565b9050919050565b60006020820190508181036000830152612ecc81612b14565b9050919050565b60006020820190508181036000830152612eec81612b37565b9050919050565b60006020820190508181036000830152612f0c81612b7d565b9050919050565b6000602082019050612f286000830184612baf565b92915050565b6000612f38612f49565b9050612f4482826131f3565b919050565b6000604051905090565b600067ffffffffffffffff821115612f6e57612f6d613389565b5b602082029050602081019050919050565b600067ffffffffffffffff821115612f9a57612f99613389565b5b612fa3826133d1565b9050602081019050919050565b6000819050919050565b600060039050919050565b600081519050919050565b600081519050919050565b6000602082019050919050565b600081905092915050565b600082825260208201905092915050565b600081905092915050565b600082825260208201905092915050565b600081905092915050565b600061303682613163565b915061304183613163565b9250827fffffffffffffffffffffffffffffffffffffffffffffffffffffffffffffffff038211156130765761307561329e565b5b828201905092915050565b600061308c82613163565b915061309783613163565b9250826130a7576130a66132cd565b5b828204905092915050565b60006130bd82613163565b91506130c883613163565b9250828210156130db576130da61329e565b5b828203905092915050565b60006130f182613143565b9050919050565b60008115159050919050565b60007fffffffff0000000000000000000000000000000000000000000000000000000082169050919050565b600081905061313e82613779565b919050565b600073ffffffffffffffffffffffffffffffffffffffff82169050919050565b6000819050919050565b600061317882613130565b9050919050565b82818337600083830152505050565b60005b838110156131ac578082015181840152602081019050613191565b838111156131bb576000848401525b50505050565b600060028204905060018216806131d957607f821691505b602082108114156131ed576131ec61332b565b5b50919050565b6131fc826133d1565b810181811067ffffffffffffffff8211171561321b5761321a613389565b5b80604052505050565b600061322f82613163565b91507fffffffffffffffffffffffffffffffffffffffffffffffffffffffffffffffff8214156132625761326161329e565b5b600182019050919050565b600061327882613163565b915061328383613163565b925082613293576132926132cd565b5b828206905092915050565b7f4e487b7100000000000000000000000000000000000000000000000000000000600052601160045260246000fd5b7f4e487b7100000000000000000000000000000000000000000000000000000000600052601260045260246000fd5b7f4e487b7100000000000000000000000000000000000000000000000000000000600052602160045260246000fd5b7f4e487b7100000000000000000000000000000000000000000000000000000000600052602260045260246000fd5b7f4e487b7100000000000000000000000000000000000000000000000000000000600052603260045260246000fd5b7f4e487b7100000000000000000000000000000000000000000000000000000000600052604160045260246000fd5b600080fd5b600080fd5b600080fd5b600080fd5b600080fd5b6000601f19601f8301169050919050565b7f4552433732313a207472616e7366657220746f206e6f6e20455243373231526560008201527f63656976657220696d706c656d656e7465720000000000000000000000000000602082015250565b7f4f776e61626c653a206e6577206f776e657220697320746865207a65726f206160008201527f6464726573730000000000000000000000000000000000000000000000000000602082015250565b7f4552433732313a207472616e736665722066726f6d20696e636f72726563742060008201527f6f776e6572000000000000000000000000000000000000000000000000000000602082015250565b7f4552433732313a20746f6b656e20616c7265616479206d696e74656400000000600082015250565b7f4552433732313a207472616e7366657220746f20746865207a65726f2061646460008201527f7265737300000000000000000000000000000000000000000000000000000000602082015250565b7f4552433732313a20617070726f766520746f2063616c6c657200000000000000600082015250565b7f4552433732313a2061646472657373207a65726f206973206e6f74206120766160008201527f6c6964206f776e65720000000000000000000000000000000000000000000000602082015250565b7f45524337323155524953746f726167653a2055524920736574206f66206e6f6e60008201527f6578697374656e7420746f6b656e000000000000000000000000000000000000602082015250565b7f4552433732313a20617070726f76652063616c6c6572206973206e6f7420746f60008201527f6b656e206f776e6572206e6f7220617070726f76656420666f7220616c6c0000602082015250565b7f4552433732313a206d696e7420746f20746865207a65726f2061646472657373600082015250565b7f4f776e61626c653a2063616c6c6572206973206e6f7420746865206f776e6572600082015250565b7f4552433732313a20696e76616c696420746f6b656e2049440000000000000000600082015250565b7f4552433732313a20617070726f76616c20746f2063757272656e74206f776e6560008201527f7200000000000000000000000000000000000000000000000000000000000000602082015250565b50565b7f4552433732313a2063616c6c6572206973206e6f7420746f6b656e206f776e6560008201527f72206e6f7220617070726f766564000000000000000000000000000000000000602082015250565b6003811061378a576137896132fc565b5b50565b613796816130e6565b81146137a157600080fd5b50565b6137ad816130f8565b81146137b857600080fd5b50565b6137c481613104565b81146137cf57600080fd5b50565b6137db81613163565b81146137e657600080fd5b5056fe52657175657374696e67206e756d6265722066726f6d2061646472657373202573a2646970667358221220b9191fcc0f1ef1f664f0067678d8bae69c36aed4762f4de8b9cbdab61860e37a64736f6c63430008070033",
  "devdoc": {
    "kind": "dev",
    "methods": {
      "approve(address,uint256)": {
        "details": "See {IERC721-approve}."
      },
      "balanceOf(address)": {
        "details": "See {IERC721-balanceOf}."
      },
      "getApproved(uint256)": {
        "details": "See {IERC721-getApproved}."
      },
      "isApprovedForAll(address,address)": {
        "details": "See {IERC721-isApprovedForAll}."
      },
      "name()": {
        "details": "See {IERC721Metadata-name}."
      },
      "owner()": {
        "details": "Returns the address of the current owner."
      },
      "ownerOf(uint256)": {
        "details": "See {IERC721-ownerOf}."
      },
      "renounceOwnership()": {
        "details": "Leaves the contract without owner. It will not be possible to call `onlyOwner` functions anymore. Can only be called by the current owner. NOTE: Renouncing ownership will leave the contract without an owner, thereby removing any functionality that is only available to the owner."
      },
      "safeTransferFrom(address,address,uint256)": {
        "details": "See {IERC721-safeTransferFrom}."
      },
      "safeTransferFrom(address,address,uint256,bytes)": {
        "details": "See {IERC721-safeTransferFrom}."
      },
      "setApprovalForAll(address,bool)": {
        "details": "See {IERC721-setApprovalForAll}."
      },
      "supportsInterface(bytes4)": {
        "details": "See {IERC165-supportsInterface}."
      },
      "symbol()": {
        "details": "See {IERC721Metadata-symbol}."
      },
      "tokenURI(uint256)": {
        "details": "See {IERC721Metadata-tokenURI}."
      },
      "transferFrom(address,address,uint256)": {
        "details": "See {IERC721-transferFrom}."
      },
      "transferOwnership(address)": {
        "details": "Transfers ownership of the contract to a new account (`newOwner`). Can only be called by the current owner."
      }
    },
    "version": 1
  },
  "userdoc": {
    "kind": "user",
    "methods": {},
    "version": 1
  },
  "storageLayout": {
    "storage": [
      {
        "astId": 1250,
        "contract": "contracts/RandomIpfsNft.sol:RandomIpfsNft",
        "label": "_name",
        "offset": 0,
        "slot": "0",
        "type": "t_string_storage"
      },
      {
        "astId": 1252,
        "contract": "contracts/RandomIpfsNft.sol:RandomIpfsNft",
        "label": "_symbol",
        "offset": 0,
        "slot": "1",
        "type": "t_string_storage"
      },
      {
        "astId": 1256,
        "contract": "contracts/RandomIpfsNft.sol:RandomIpfsNft",
        "label": "_owners",
        "offset": 0,
        "slot": "2",
        "type": "t_mapping(t_uint256,t_address)"
      },
      {
        "astId": 1260,
        "contract": "contracts/RandomIpfsNft.sol:RandomIpfsNft",
        "label": "_balances",
        "offset": 0,
        "slot": "3",
        "type": "t_mapping(t_address,t_uint256)"
      },
      {
        "astId": 1264,
        "contract": "contracts/RandomIpfsNft.sol:RandomIpfsNft",
        "label": "_tokenApprovals",
        "offset": 0,
        "slot": "4",
        "type": "t_mapping(t_uint256,t_address)"
      },
      {
        "astId": 1270,
        "contract": "contracts/RandomIpfsNft.sol:RandomIpfsNft",
        "label": "_operatorApprovals",
        "offset": 0,
        "slot": "5",
        "type": "t_mapping(t_address,t_mapping(t_address,t_bool))"
      },
      {
        "astId": 2238,
        "contract": "contracts/RandomIpfsNft.sol:RandomIpfsNft",
        "label": "_tokenURIs",
        "offset": 0,
        "slot": "6",
        "type": "t_mapping(t_uint256,t_string_storage)"
      },
      {
        "astId": 1119,
        "contract": "contracts/RandomIpfsNft.sol:RandomIpfsNft",
        "label": "_owner",
        "offset": 0,
        "slot": "7",
        "type": "t_address"
      },
      {
        "astId": 3058,
        "contract": "contracts/RandomIpfsNft.sol:RandomIpfsNft",
        "label": "s_requestIdToSender",
        "offset": 0,
        "slot": "8",
        "type": "t_mapping(t_uint256,t_address)"
      },
      {
        "astId": 3060,
        "contract": "contracts/RandomIpfsNft.sol:RandomIpfsNft",
        "label": "s_tokenCounter",
        "offset": 0,
        "slot": "9",
        "type": "t_uint256"
      },
      {
        "astId": 3067,
        "contract": "contracts/RandomIpfsNft.sol:RandomIpfsNft",
        "label": "s_dogTokenUris",
        "offset": 0,
        "slot": "10",
        "type": "t_array(t_string_storage)3_storage"
      }
    ],
    "types": {
      "t_address": {
        "encoding": "inplace",
        "label": "address",
        "numberOfBytes": "20"
      },
      "t_array(t_string_storage)3_storage": {
        "base": "t_string_storage",
        "encoding": "inplace",
        "label": "string[3]",
        "numberOfBytes": "96"
      },
      "t_bool": {
        "encoding": "inplace",
        "label": "bool",
        "numberOfBytes": "1"
      },
      "t_mapping(t_address,t_bool)": {
        "encoding": "mapping",
        "key": "t_address",
        "label": "mapping(address => bool)",
        "numberOfBytes": "32",
        "value": "t_bool"
      },
      "t_mapping(t_address,t_mapping(t_address,t_bool))": {
        "encoding": "mapping",
        "key": "t_address",
        "label": "mapping(address => mapping(address => bool))",
        "numberOfBytes": "32",
        "value": "t_mapping(t_address,t_bool)"
      },
      "t_mapping(t_address,t_uint256)": {
        "encoding": "mapping",
        "key": "t_address",
        "label": "mapping(address => uint256)",
        "numberOfBytes": "32",
        "value": "t_uint256"
      },
      "t_mapping(t_uint256,t_address)": {
        "encoding": "mapping",
        "key": "t_uint256",
        "label": "mapping(uint256 => address)",
        "numberOfBytes": "32",
        "value": "t_address"
      },
      "t_mapping(t_uint256,t_string_storage)": {
        "encoding": "mapping",
        "key": "t_uint256",
        "label": "mapping(uint256 => string)",
        "numberOfBytes": "32",
        "value": "t_string_storage"
      },
      "t_string_storage": {
        "encoding": "bytes",
        "label": "string",
        "numberOfBytes": "32"
      },
      "t_uint256": {
        "encoding": "inplace",
        "label": "uint256",
        "numberOfBytes": "32"
      }
    }
  }
}