{
  "address": "0x9CAD93C85329003663d67d0EdBdee7a35DDF43E4",
  "abi": [
    {
      "inputs": [
        {
          "internalType": "address",
          "name": "priceFeedAddress",
          "type": "address"
        },
        {
          "internalType": "string",
          "name": "lowSvg",
          "type": "string"
        },
        {
          "internalType": "string",
          "name": "highSvg",
          "type": "string"
        }
      ],
      "stateMutability": "nonpayable",
      "type": "constructor"
    },
    {
      "inputs": [],
      "name": "ERC721Metadata__URI_QueryFor_NonExistentToken",
      "type": "error"
    },
    {
      "anonymous": false,
      "inputs": [
        {
          "indexed": true,
          "internalType": "address",
          "name": "owner",
          "type": "address"
        },
        {
          "indexed": true,
          "internalType": "address",
          "name": "approved",
          "type": "address"
        },
        {
          "indexed": true,
          "internalType": "uint256",
          "name": "tokenId",
          "type": "uint256"
        }
      ],
      "name": "Approval",
      "type": "event"
    },
    {
      "anonymous": false,
      "inputs": [
        {
          "indexed": true,
          "internalType": "address",
          "name": "owner",
          "type": "address"
        },
        {
          "indexed": true,
          "internalType": "address",
          "name": "operator",
          "type": "address"
        },
        {
          "indexed": false,
          "internalType": "bool",
          "name": "approved",
          "type": "bool"
        }
      ],
      "name": "ApprovalForAll",
      "type": "event"
    },
    {
      "anonymous": false,
      "inputs": [
        {
          "indexed": true,
          "internalType": "uint256",
          "name": "tokenId",
          "type": "uint256"
        },
        {
          "indexed": false,
          "internalType": "int256",
          "name": "highValue",
          "type": "int256"
        }
      ],
      "name": "NFTCreated",
      "type": "event"
    },
    {
      "anonymous": false,
      "inputs": [
        {
          "indexed": true,
          "internalType": "address",
          "name": "from",
          "type": "address"
        },
        {
          "indexed": true,
          "internalType": "address",
          "name": "to",
          "type": "address"
        },
        {
          "indexed": true,
          "internalType": "uint256",
          "name": "tokenId",
          "type": "uint256"
        }
      ],
      "name": "Transfer",
      "type": "event"
    },
    {
      "inputs": [
        {
          "internalType": "address",
          "name": "to",
          "type": "address"
        },
        {
          "internalType": "uint256",
          "name": "tokenId",
          "type": "uint256"
        }
      ],
      "name": "approve",
      "outputs": [],
      "stateMutability": "nonpayable",
      "type": "function"
    },
    {
      "inputs": [
        {
          "internalType": "address",
          "name": "owner",
          "type": "address"
        }
      ],
      "name": "balanceOf",
      "outputs": [
        {
          "internalType": "uint256",
          "name": "",
          "type": "uint256"
        }
      ],
      "stateMutability": "view",
      "type": "function"
    },
    {
      "inputs": [
        {
          "internalType": "uint256",
          "name": "tokenId",
          "type": "uint256"
        }
      ],
      "name": "getApproved",
      "outputs": [
        {
          "internalType": "address",
          "name": "",
          "type": "address"
        }
      ],
      "stateMutability": "view",
      "type": "function"
    },
    {
      "inputs": [],
      "name": "getHighSVG",
      "outputs": [
        {
          "internalType": "string",
          "name": "",
          "type": "string"
        }
      ],
      "stateMutability": "view",
      "type": "function"
    },
    {
      "inputs": [],
      "name": "getLowSVG",
      "outputs": [
        {
          "internalType": "string",
          "name": "",
          "type": "string"
        }
      ],
      "stateMutability": "view",
      "type": "function"
    },
    {
      "inputs": [],
      "name": "getPrice",
      "outputs": [
        {
          "internalType": "int256",
          "name": "",
          "type": "int256"
        }
      ],
      "stateMutability": "view",
      "type": "function"
    },
    {
      "inputs": [],
      "name": "getPriceFeed",
      "outputs": [
        {
          "internalType": "contract AggregatorV3Interface",
          "name": "",
          "type": "address"
        }
      ],
      "stateMutability": "view",
      "type": "function"
    },
    {
      "inputs": [],
      "name": "getTokenCounter",
      "outputs": [
        {
          "internalType": "uint256",
          "name": "",
          "type": "uint256"
        }
      ],
      "stateMutability": "view",
      "type": "function"
    },
    {
      "inputs": [
        {
          "internalType": "address",
          "name": "owner",
          "type": "address"
        },
        {
          "internalType": "address",
          "name": "operator",
          "type": "address"
        }
      ],
      "name": "isApprovedForAll",
      "outputs": [
        {
          "internalType": "bool",
          "name": "",
          "type": "bool"
        }
      ],
      "stateMutability": "view",
      "type": "function"
    },
    {
      "inputs": [
        {
          "internalType": "int256",
          "name": "highValue",
          "type": "int256"
        }
      ],
      "name": "mintNft",
      "outputs": [],
      "stateMutability": "nonpayable",
      "type": "function"
    },
    {
      "inputs": [],
      "name": "name",
      "outputs": [
        {
          "internalType": "string",
          "name": "",
          "type": "string"
        }
      ],
      "stateMutability": "view",
      "type": "function"
    },
    {
      "inputs": [
        {
          "internalType": "uint256",
          "name": "tokenId",
          "type": "uint256"
        }
      ],
      "name": "ownerOf",
      "outputs": [
        {
          "internalType": "address",
          "name": "",
          "type": "address"
        }
      ],
      "stateMutability": "view",
      "type": "function"
    },
    {
      "inputs": [
        {
          "internalType": "uint256",
          "name": "",
          "type": "uint256"
        }
      ],
      "name": "s_tokenIdToHighValue",
      "outputs": [
        {
          "internalType": "int256",
          "name": "",
          "type": "int256"
        }
      ],
      "stateMutability": "view",
      "type": "function"
    },
    {
      "inputs": [
        {
          "internalType": "address",
          "name": "from",
          "type": "address"
        },
        {
          "internalType": "address",
          "name": "to",
          "type": "address"
        },
        {
          "internalType": "uint256",
          "name": "tokenId",
          "type": "uint256"
        }
      ],
      "name": "safeTransferFrom",
      "outputs": [],
      "stateMutability": "nonpayable",
      "type": "function"
    },
    {
      "inputs": [
        {
          "internalType": "address",
          "name": "from",
          "type": "address"
        },
        {
          "internalType": "address",
          "name": "to",
          "type": "address"
        },
        {
          "internalType": "uint256",
          "name": "tokenId",
          "type": "uint256"
        },
        {
          "internalType": "bytes",
          "name": "data",
          "type": "bytes"
        }
      ],
      "name": "safeTransferFrom",
      "outputs": [],
      "stateMutability": "nonpayable",
      "type": "function"
    },
    {
      "inputs": [
        {
          "internalType": "address",
          "name": "operator",
          "type": "address"
        },
        {
          "internalType": "bool",
          "name": "approved",
          "type": "bool"
        }
      ],
      "name": "setApprovalForAll",
      "outputs": [],
      "stateMutability": "nonpayable",
      "type": "function"
    },
    {
      "inputs": [
        {
          "internalType": "bytes4",
          "name": "interfaceId",
          "type": "bytes4"
        }
      ],
      "name": "supportsInterface",
      "outputs": [
        {
          "internalType": "bool",
          "name": "",
          "type": "bool"
        }
      ],
      "stateMutability": "view",
      "type": "function"
    },
    {
      "inputs": [
        {
          "internalType": "string",
          "name": "svg",
          "type": "string"
        }
      ],
      "name": "svgToImageURI",
      "outputs": [
        {
          "internalType": "string",
          "name": "",
          "type": "string"
        }
      ],
      "stateMutability": "pure",
      "type": "function"
    },
    {
      "inputs": [],
      "name": "symbol",
      "outputs": [
        {
          "internalType": "string",
          "name": "",
          "type": "string"
        }
      ],
      "stateMutability": "view",
      "type": "function"
    },
    {
      "inputs": [
        {
          "internalType": "uint256",
          "name": "tokenId",
          "type": "uint256"
        }
      ],
      "name": "tokenURI",
      "outputs": [
        {
          "internalType": "string",
          "name": "",
          "type": "string"
        }
      ],
      "stateMutability": "view",
      "type": "function"
    },
    {
      "inputs": [
        {
          "internalType": "address",
          "name": "from",
          "type": "address"
        },
        {
          "internalType": "address",
          "name": "to",
          "type": "address"
        },
        {
          "internalType": "uint256",
          "name": "tokenId",
          "type": "uint256"
        }
      ],
      "name": "transferFrom",
      "outputs": [],
      "stateMutability": "nonpayable",
      "type": "function"
    }
  ],
  "transactionHash": "0x091f51108d4c0992263827619d325008272b7754a360643797cfcd7337f80de7",
  "args": [
    "0x8A753747A1Fa494EC906cE90E9f37563A8AF630e",
    "<?xml version=\"1.0\" standalone=\"no\"?>\n<svg width=\"1024px\" height=\"1024px\" viewBox=\"0 0 1024 1024\" xmlns=\"http://www.w3.org/2000/svg\">\n  <path fill=\"#333\" d=\"M512 64C264.6 64 64 264.6 64 512s200.6 448 448 448 448-200.6 448-448S759.4 64 512 64zm0 820c-205.4 0-372-166.6-372-372s166.6-372 372-372 372 166.6 372 372-166.6 372-372 372z\"/>\n  <path fill=\"#E6E6E6\" d=\"M512 140c-205.4 0-372 166.6-372 372s166.6 372 372 372 372-166.6 372-372-166.6-372-372-372zM288 421a48.01 48.01 0 0 1 96 0 48.01 48.01 0 0 1-96 0zm376 272h-48.1c-4.2 0-7.8-3.2-8.1-7.4C604 636.1 562.5 597 512 597s-92.1 39.1-95.8 88.6c-.3 4.2-3.9 7.4-8.1 7.4H360a8 8 0 0 1-8-8.4c4.4-84.3 74.5-151.6 160-151.6s155.6 67.3 160 151.6a8 8 0 0 1-8 8.4zm24-224a48.01 48.01 0 0 1 0-96 48.01 48.01 0 0 1 0 96z\"/>\n  <path fill=\"#333\" d=\"M288 421a48 48 0 1 0 96 0 48 48 0 1 0-96 0zm224 112c-85.5 0-155.6 67.3-160 151.6a8 8 0 0 0 8 8.4h48.1c4.2 0 7.8-3.2 8.1-7.4 3.7-49.5 45.3-88.6 95.8-88.6s92 39.1 95.8 88.6c.3 4.2 3.9 7.4 8.1 7.4H664a8 8 0 0 0 8-8.4C667.6 600.3 597.5 533 512 533zm128-112a48 48 0 1 0 96 0 48 48 0 1 0-96 0z\"/>\n</svg>\n",
    "<svg viewBox=\"0 0 200 200\" width=\"400\"  height=\"400\" xmlns=\"http://www.w3.org/2000/svg\">\n  <circle cx=\"100\" cy=\"100\" fill=\"yellow\" r=\"78\" stroke=\"black\" stroke-width=\"3\"/>\n  <g class=\"eyes\">\n    <circle cx=\"61\" cy=\"82\" r=\"12\"/>\n    <circle cx=\"127\" cy=\"82\" r=\"12\"/>\n  </g>\n  <path d=\"m136.81 116.53c.69 26.17-64.11 42-81.52-.73\" style=\"fill:none; stroke: black; stroke-width: 3;\"/>\n</svg>"
  ],
  "numDeployments": 1,
  "solcInputHash": "488bdf5cfc4f1ad935bcaedfb3045feb",
  "bytecode": "0x60a06040523480156200001157600080fd5b5060405162003aaa38038062003aaa833981810160405281019062000037919062000655565b6040518060400160405280600f81526020017f44796e616d696320535647204e465400000000000000000000000000000000008152506040518060400160405280600381526020017f44534e00000000000000000000000000000000000000000000000000000000008152508160009080519060200190620000bb929190620003a3565b508060019080519060200190620000d4929190620003a3565b5050506000600681905550620000f0826200017160201b60201c565b6007908051906020019062000107929190620003a3565b5062000119816200017160201b60201c565b6008908051906020019062000130929190620003a3565b508273ffffffffffffffffffffffffffffffffffffffff1660808173ffffffffffffffffffffffffffffffffffffffff1660601b8152505050505062000940565b606060006040518060400160405280601a81526020017f646174613a696d6167652f7376672b786d6c3b6261736536342c00000000000081525090506000620001e684604051602001620001c691906200073c565b6040516020818303038152906040526200021560201b6200103b1760201c565b90508181604051602001620001fd92919062000755565b60405160208183030381529060405292505050919050565b60606000825114156200023a576040518060200160405280600081525090506200039e565b600060405180606001604052806040815260200162003a6a60409139905060006003600285516200026c9190620007b6565b62000278919062000842565b60046200028691906200087a565b90506000602082620002999190620007b6565b67ffffffffffffffff811115620002b557620002b4620004e7565b5b6040519080825280601f01601f191660200182016040528015620002e85781602001600182028036833780820191505090505b509050818152600183018586518101602084015b8183101562000359576003830192508251603f8160121c168501518253600182019150603f81600c1c168501518253600182019150603f8160061c168501518253600182019150603f8116850151825360018201915050620002fc565b600389510660018114620003765760028114620003875762000392565b613d3d60f01b600283035262000392565b603d60f81b60018303525b50505050508093505050505b919050565b828054620003b1906200090a565b90600052602060002090601f016020900481019282620003d5576000855562000421565b82601f10620003f057805160ff191683800117855562000421565b8280016001018555821562000421579182015b828111156200042057825182559160200191906001019062000403565b5b50905062000430919062000434565b5090565b5b808211156200044f57600081600090555060010162000435565b5090565b6000604051905090565b600080fd5b600080fd5b600073ffffffffffffffffffffffffffffffffffffffff82169050919050565b6000620004948262000467565b9050919050565b620004a68162000487565b8114620004b257600080fd5b50565b600081519050620004c6816200049b565b92915050565b600080fd5b600080fd5b6000601f19601f8301169050919050565b7f4e487b7100000000000000000000000000000000000000000000000000000000600052604160045260246000fd5b6200052182620004d6565b810181811067ffffffffffffffff82111715620005435762000542620004e7565b5b80604052505050565b60006200055862000453565b905062000566828262000516565b919050565b600067ffffffffffffffff821115620005895762000588620004e7565b5b6200059482620004d6565b9050602081019050919050565b60005b83811015620005c1578082015181840152602081019050620005a4565b83811115620005d1576000848401525b50505050565b6000620005ee620005e8846200056b565b6200054c565b9050828152602081018484840111156200060d576200060c620004d1565b5b6200061a848285620005a1565b509392505050565b600082601f8301126200063a5762000639620004cc565b5b81516200064c848260208601620005d7565b91505092915050565b6000806000606084860312156200067157620006706200045d565b5b60006200068186828701620004b5565b935050602084015167ffffffffffffffff811115620006a557620006a462000462565b5b620006b38682870162000622565b925050604084015167ffffffffffffffff811115620006d757620006d662000462565b5b620006e58682870162000622565b9150509250925092565b600081519050919050565b600081905092915050565b60006200071282620006ef565b6200071e8185620006fa565b935062000730818560208601620005a1565b80840191505092915050565b60006200074a828462000705565b915081905092915050565b600062000763828562000705565b915062000771828462000705565b91508190509392505050565b6000819050919050565b7f4e487b7100000000000000000000000000000000000000000000000000000000600052601160045260246000fd5b6000620007c3826200077d565b9150620007d0836200077d565b9250827fffffffffffffffffffffffffffffffffffffffffffffffffffffffffffffffff0382111562000808576200080762000787565b5b828201905092915050565b7f4e487b7100000000000000000000000000000000000000000000000000000000600052601260045260246000fd5b60006200084f826200077d565b91506200085c836200077d565b9250826200086f576200086e62000813565b5b828204905092915050565b600062000887826200077d565b915062000894836200077d565b9250817fffffffffffffffffffffffffffffffffffffffffffffffffffffffffffffffff0483118215151615620008d057620008cf62000787565b5b828202905092915050565b7f4e487b7100000000000000000000000000000000000000000000000000000000600052602260045260246000fd5b600060028204905060018216806200092357607f821691505b602082108114156200093a5762000939620008db565b5b50919050565b60805160601c6130fd6200096d60003960008181610b3301528181610be00152610d5001526130fd6000f3fe608060405234801561001057600080fd5b50600436106101375760003560e01c806370a08231116100b8578063a22cb4651161007c578063a22cb46514610350578063b88d4fde1461036c578063c87b56dd14610388578063e425aded146103b8578063e985e9c5146103e8578063ed28a1221461041857610137565b806370a08231146102a857806376f6056b146102d857806395d89b41146102f657806398d5fdca146103145780639e87a5cd1461033257610137565b806323b872dd116100ff57806323b872dd146101f257806330d871c61461020e57806342842e0e1461023e5780636352211e1461025a5780636e02007d1461028a57610137565b806301ffc9a71461013c57806306fdde031461016c578063081812fc1461018a578063095ea7b3146101ba5780631e930812146101d6575b600080fd5b61015660048036038101906101519190611d1b565b610436565b6040516101639190611d63565b60405180910390f35b610174610518565b6040516101819190611e17565b60405180910390f35b6101a4600480360381019061019f9190611e6f565b6105aa565b6040516101b19190611edd565b60405180910390f35b6101d460048036038101906101cf9190611f24565b6105f0565b005b6101f060048036038101906101eb9190611f9a565b610708565b005b61020c60048036038101906102079190611fc7565b610783565b005b6102286004803603810190610223919061214f565b6107e3565b6040516102359190611e17565b60405180910390f35b61025860048036038101906102539190611fc7565b610876565b005b610274600480360381019061026f9190611e6f565b610896565b6040516102819190611edd565b60405180910390f35b610292610948565b60405161029f91906121a7565b60405180910390f35b6102c260048036038101906102bd91906121c2565b610952565b6040516102cf91906121a7565b60405180910390f35b6102e0610a0a565b6040516102ed9190611e17565b60405180910390f35b6102fe610a9c565b60405161030b9190611e17565b60405180910390f35b61031c610b2e565b60405161032991906121fe565b60405180910390f35b61033a610bdc565b6040516103479190612278565b60405180910390f35b61036a600480360381019061036591906122bf565b610c04565b005b610386600480360381019061038191906123a0565b610c1a565b005b6103a2600480360381019061039d9190611e6f565b610c7c565b6040516103af9190611e17565b60405180910390f35b6103d260048036038101906103cd9190611e6f565b610efd565b6040516103df91906121fe565b60405180910390f35b61040260048036038101906103fd9190612423565b610f15565b60405161040f9190611d63565b60405180910390f35b610420610fa9565b60405161042d9190611e17565b60405180910390f35b60007f80ac58cd000000000000000000000000000000000000000000000000000000007bffffffffffffffffffffffffffffffffffffffffffffffffffffffff1916827bffffffffffffffffffffffffffffffffffffffffffffffffffffffff1916148061050157507f5b5e139f000000000000000000000000000000000000000000000000000000007bffffffffffffffffffffffffffffffffffffffffffffffffffffffff1916827bffffffffffffffffffffffffffffffffffffffffffffffffffffffff1916145b806105115750610510826111b4565b5b9050919050565b60606000805461052790612492565b80601f016020809104026020016040519081016040528092919081815260200182805461055390612492565b80156105a05780601f10610575576101008083540402835291602001916105a0565b820191906000526020600020905b81548152906001019060200180831161058357829003601f168201915b5050505050905090565b60006105b58261121e565b6004600083815260200190815260200160002060009054906101000a900473ffffffffffffffffffffffffffffffffffffffff169050919050565b60006105fb82610896565b90508073ffffffffffffffffffffffffffffffffffffffff168373ffffffffffffffffffffffffffffffffffffffff16141561066c576040517f08c379a000000000000000000000000000000000000000000000000000000000815260040161066390612536565b60405180910390fd5b8073ffffffffffffffffffffffffffffffffffffffff1661068b611269565b73ffffffffffffffffffffffffffffffffffffffff1614806106ba57506106b9816106b4611269565b610f15565b5b6106f9576040517f08c379a00000000000000000000000000000000000000000000000000000000081526004016106f0906125c8565b60405180910390fd5b6107038383611271565b505050565b806009600060065481526020019081526020016000208190555061072e3360065461132a565b6006600081548092919061074190612617565b91905055506006547f649ac5270ac3b7441ccd9b2f250adb36ae81165fd281c6e973db6590fac8deaf8260405161077891906121fe565b60405180910390a250565b61079461078e611269565b82611348565b6107d3576040517f08c379a00000000000000000000000000000000000000000000000000000000081526004016107ca906126d2565b60405180910390fd5b6107de8383836113dd565b505050565b606060006040518060400160405280601a81526020017f646174613a696d6167652f7376672b786d6c3b6261736536342c0000000000008152509050600061084984604051602001610835919061272e565b60405160208183030381529060405261103b565b9050818160405160200161085e929190612745565b60405160208183030381529060405292505050919050565b61089183838360405180602001604052806000815250610c1a565b505050565b6000806002600084815260200190815260200160002060009054906101000a900473ffffffffffffffffffffffffffffffffffffffff169050600073ffffffffffffffffffffffffffffffffffffffff168173ffffffffffffffffffffffffffffffffffffffff16141561093f576040517f08c379a0000000000000000000000000000000000000000000000000000000008152600401610936906127b5565b60405180910390fd5b80915050919050565b6000600654905090565b60008073ffffffffffffffffffffffffffffffffffffffff168273ffffffffffffffffffffffffffffffffffffffff1614156109c3576040517f08c379a00000000000000000000000000000000000000000000000000000000081526004016109ba90612847565b60405180910390fd5b600360008373ffffffffffffffffffffffffffffffffffffffff1673ffffffffffffffffffffffffffffffffffffffff168152602001908152602001600020549050919050565b606060088054610a1990612492565b80601f0160208091040260200160405190810160405280929190818152602001828054610a4590612492565b8015610a925780601f10610a6757610100808354040283529160200191610a92565b820191906000526020600020905b815481529060010190602001808311610a7557829003601f168201915b5050505050905090565b606060018054610aab90612492565b80601f0160208091040260200160405190810160405280929190818152602001828054610ad790612492565b8015610b245780601f10610af957610100808354040283529160200191610b24565b820191906000526020600020905b815481529060010190602001808311610b0757829003601f168201915b5050505050905090565b6000807f000000000000000000000000000000000000000000000000000000000000000073ffffffffffffffffffffffffffffffffffffffff1663feaf968c6040518163ffffffff1660e01b815260040160a06040518083038186803b158015610b9757600080fd5b505afa158015610bab573d6000803e3d6000fd5b505050506040513d601f19601f82011682018060405250810190610bcf91906128d3565b5050509150508091505090565b60007f0000000000000000000000000000000000000000000000000000000000000000905090565b610c16610c0f611269565b8383611644565b5050565b610c2b610c25611269565b83611348565b610c6a576040517f08c379a0000000000000000000000000000000000000000000000000000000008152600401610c61906126d2565b60405180910390fd5b610c76848484846117b1565b50505050565b6060610c878261180d565b610cbd576040517f6df5edae00000000000000000000000000000000000000000000000000000000815260040160405180910390fd5b600060078054610ccc90612492565b80601f0160208091040260200160405190810160405280929190818152602001828054610cf890612492565b8015610d455780601f10610d1a57610100808354040283529160200191610d45565b820191906000526020600020905b815481529060010190602001808311610d2857829003601f168201915b5050505050905060007f000000000000000000000000000000000000000000000000000000000000000073ffffffffffffffffffffffffffffffffffffffff1663feaf968c6040518163ffffffff1660e01b815260040160a06040518083038186803b158015610db457600080fd5b505afa158015610dc8573d6000803e3d6000fd5b505050506040513d601f19601f82011682018060405250810190610dec91906128d3565b5050509150506009600085815260200190815260200160002054811315610e9b5760088054610e1a90612492565b80601f0160208091040260200160405190810160405280929190818152602001828054610e4690612492565b8015610e935780601f10610e6857610100808354040283529160200191610e93565b820191906000526020600020905b815481529060010190602001808311610e7657829003601f168201915b505050505091505b610ea3611879565b610ed4610eae610518565b84604051602001610ec0929190612b16565b60405160208183030381529060405261103b565b604051602001610ee5929190612745565b60405160208183030381529060405292505050919050565b60096020528060005260406000206000915090505481565b6000600560008473ffffffffffffffffffffffffffffffffffffffff1673ffffffffffffffffffffffffffffffffffffffff16815260200190815260200160002060008373ffffffffffffffffffffffffffffffffffffffff1673ffffffffffffffffffffffffffffffffffffffff16815260200190815260200160002060009054906101000a900460ff16905092915050565b606060078054610fb890612492565b80601f0160208091040260200160405190810160405280929190818152602001828054610fe490612492565b80156110315780601f1061100657610100808354040283529160200191611031565b820191906000526020600020905b81548152906001019060200180831161101457829003601f168201915b5050505050905090565b606060008251141561105e576040518060200160405280600081525090506111af565b6000604051806060016040528060408152602001613088604091399050600060036002855161108d9190612b66565b6110979190612beb565b60046110a39190612c1c565b905060006020826110b49190612b66565b67ffffffffffffffff8111156110cd576110cc612024565b5b6040519080825280601f01601f1916602001820160405280156110ff5781602001600182028036833780820191505090505b509050818152600183018586518101602084015b8183101561116e576003830192508251603f8160121c168501518253600182019150603f81600c1c168501518253600182019150603f8160061c168501518253600182019150603f8116850151825360018201915050611113565b6003895106600181146111885760028114611198576111a3565b613d3d60f01b60028303526111a3565b603d60f81b60018303525b50505050508093505050505b919050565b60007f01ffc9a7000000000000000000000000000000000000000000000000000000007bffffffffffffffffffffffffffffffffffffffffffffffffffffffff1916827bffffffffffffffffffffffffffffffffffffffffffffffffffffffff1916149050919050565b6112278161180d565b611266576040517f08c379a000000000000000000000000000000000000000000000000000000000815260040161125d906127b5565b60405180910390fd5b50565b600033905090565b816004600083815260200190815260200160002060006101000a81548173ffffffffffffffffffffffffffffffffffffffff021916908373ffffffffffffffffffffffffffffffffffffffff160217905550808273ffffffffffffffffffffffffffffffffffffffff166112e483610896565b73ffffffffffffffffffffffffffffffffffffffff167f8c5be1e5ebec7d5bd14f71427d1e84f3dd0314c0f7b2291e5b200ac8c7c3b92560405160405180910390a45050565b6113448282604051806020016040528060008152506118b6565b5050565b60008061135483610896565b90508073ffffffffffffffffffffffffffffffffffffffff168473ffffffffffffffffffffffffffffffffffffffff16148061139657506113958185610f15565b5b806113d457508373ffffffffffffffffffffffffffffffffffffffff166113bc846105aa565b73ffffffffffffffffffffffffffffffffffffffff16145b91505092915050565b8273ffffffffffffffffffffffffffffffffffffffff166113fd82610896565b73ffffffffffffffffffffffffffffffffffffffff1614611453576040517f08c379a000000000000000000000000000000000000000000000000000000000815260040161144a90612ce8565b60405180910390fd5b600073ffffffffffffffffffffffffffffffffffffffff168273ffffffffffffffffffffffffffffffffffffffff1614156114c3576040517f08c379a00000000000000000000000000000000000000000000000000000000081526004016114ba90612d7a565b60405180910390fd5b6114ce838383611911565b6114d9600082611271565b6001600360008573ffffffffffffffffffffffffffffffffffffffff1673ffffffffffffffffffffffffffffffffffffffff16815260200190815260200160002060008282546115299190612d9a565b925050819055506001600360008473ffffffffffffffffffffffffffffffffffffffff1673ffffffffffffffffffffffffffffffffffffffff16815260200190815260200160002060008282546115809190612b66565b92505081905550816002600083815260200190815260200160002060006101000a81548173ffffffffffffffffffffffffffffffffffffffff021916908373ffffffffffffffffffffffffffffffffffffffff160217905550808273ffffffffffffffffffffffffffffffffffffffff168473ffffffffffffffffffffffffffffffffffffffff167fddf252ad1be2c89b69c2b068fc378daa952ba7f163c4a11628f55a4df523b3ef60405160405180910390a461163f838383611916565b505050565b8173ffffffffffffffffffffffffffffffffffffffff168373ffffffffffffffffffffffffffffffffffffffff1614156116b3576040517f08c379a00000000000000000000000000000000000000000000000000000000081526004016116aa90612e1a565b60405180910390fd5b80600560008573ffffffffffffffffffffffffffffffffffffffff1673ffffffffffffffffffffffffffffffffffffffff16815260200190815260200160002060008473ffffffffffffffffffffffffffffffffffffffff1673ffffffffffffffffffffffffffffffffffffffff16815260200190815260200160002060006101000a81548160ff0219169083151502179055508173ffffffffffffffffffffffffffffffffffffffff168373ffffffffffffffffffffffffffffffffffffffff167f17307eab39ab6107e8899845ad3d59bd9653f200f220920489ca2b5937696c31836040516117a49190611d63565b60405180910390a3505050565b6117bc8484846113dd565b6117c88484848461191b565b611807576040517f08c379a00000000000000000000000000000000000000000000000000000000081526004016117fe90612eac565b60405180910390fd5b50505050565b60008073ffffffffffffffffffffffffffffffffffffffff166002600084815260200190815260200160002060009054906101000a900473ffffffffffffffffffffffffffffffffffffffff1673ffffffffffffffffffffffffffffffffffffffff1614159050919050565b60606040518060400160405280601d81526020017f646174613a6170706c69636174696f6e2f6a736f6e3b6261736536342c000000815250905090565b6118c08383611ab2565b6118cd600084848461191b565b61190c576040517f08c379a000000000000000000000000000000000000000000000000000000000815260040161190390612eac565b60405180910390fd5b505050565b505050565b505050565b600061193c8473ffffffffffffffffffffffffffffffffffffffff16611c8c565b15611aa5578373ffffffffffffffffffffffffffffffffffffffff1663150b7a02611965611269565b8786866040518563ffffffff1660e01b81526004016119879493929190612f21565b602060405180830381600087803b1580156119a157600080fd5b505af19250505080156119d257506040513d601f19601f820116820180604052508101906119cf9190612f82565b60015b611a55573d8060008114611a02576040519150601f19603f3d011682016040523d82523d6000602084013e611a07565b606091505b50600081511415611a4d576040517f08c379a0000000000000000000000000000000000000000000000000000000008152600401611a4490612eac565b60405180910390fd5b805181602001fd5b63150b7a0260e01b7bffffffffffffffffffffffffffffffffffffffffffffffffffffffff1916817bffffffffffffffffffffffffffffffffffffffffffffffffffffffff191614915050611aaa565b600190505b949350505050565b600073ffffffffffffffffffffffffffffffffffffffff168273ffffffffffffffffffffffffffffffffffffffff161415611b22576040517f08c379a0000000000000000000000000000000000000000000000000000000008152600401611b1990612ffb565b60405180910390fd5b611b2b8161180d565b15611b6b576040517f08c379a0000000000000000000000000000000000000000000000000000000008152600401611b6290613067565b60405180910390fd5b611b7760008383611911565b6001600360008473ffffffffffffffffffffffffffffffffffffffff1673ffffffffffffffffffffffffffffffffffffffff1681526020019081526020016000206000828254611bc79190612b66565b92505081905550816002600083815260200190815260200160002060006101000a81548173ffffffffffffffffffffffffffffffffffffffff021916908373ffffffffffffffffffffffffffffffffffffffff160217905550808273ffffffffffffffffffffffffffffffffffffffff16600073ffffffffffffffffffffffffffffffffffffffff167fddf252ad1be2c89b69c2b068fc378daa952ba7f163c4a11628f55a4df523b3ef60405160405180910390a4611c8860008383611916565b5050565b6000808273ffffffffffffffffffffffffffffffffffffffff163b119050919050565b6000604051905090565b600080fd5b600080fd5b60007fffffffff0000000000000000000000000000000000000000000000000000000082169050919050565b611cf881611cc3565b8114611d0357600080fd5b50565b600081359050611d1581611cef565b92915050565b600060208284031215611d3157611d30611cb9565b5b6000611d3f84828501611d06565b91505092915050565b60008115159050919050565b611d5d81611d48565b82525050565b6000602082019050611d786000830184611d54565b92915050565b600081519050919050565b600082825260208201905092915050565b60005b83811015611db8578082015181840152602081019050611d9d565b83811115611dc7576000848401525b50505050565b6000601f19601f8301169050919050565b6000611de982611d7e565b611df38185611d89565b9350611e03818560208601611d9a565b611e0c81611dcd565b840191505092915050565b60006020820190508181036000830152611e318184611dde565b905092915050565b6000819050919050565b611e4c81611e39565b8114611e5757600080fd5b50565b600081359050611e6981611e43565b92915050565b600060208284031215611e8557611e84611cb9565b5b6000611e9384828501611e5a565b91505092915050565b600073ffffffffffffffffffffffffffffffffffffffff82169050919050565b6000611ec782611e9c565b9050919050565b611ed781611ebc565b82525050565b6000602082019050611ef26000830184611ece565b92915050565b611f0181611ebc565b8114611f0c57600080fd5b50565b600081359050611f1e81611ef8565b92915050565b60008060408385031215611f3b57611f3a611cb9565b5b6000611f4985828601611f0f565b9250506020611f5a85828601611e5a565b9150509250929050565b6000819050919050565b611f7781611f64565b8114611f8257600080fd5b50565b600081359050611f9481611f6e565b92915050565b600060208284031215611fb057611faf611cb9565b5b6000611fbe84828501611f85565b91505092915050565b600080600060608486031215611fe057611fdf611cb9565b5b6000611fee86828701611f0f565b9350506020611fff86828701611f0f565b925050604061201086828701611e5a565b9150509250925092565b600080fd5b600080fd5b7f4e487b7100000000000000000000000000000000000000000000000000000000600052604160045260246000fd5b61205c82611dcd565b810181811067ffffffffffffffff8211171561207b5761207a612024565b5b80604052505050565b600061208e611caf565b905061209a8282612053565b919050565b600067ffffffffffffffff8211156120ba576120b9612024565b5b6120c382611dcd565b9050602081019050919050565b82818337600083830152505050565b60006120f26120ed8461209f565b612084565b90508281526020810184848401111561210e5761210d61201f565b5b6121198482856120d0565b509392505050565b600082601f8301126121365761213561201a565b5b81356121468482602086016120df565b91505092915050565b60006020828403121561216557612164611cb9565b5b600082013567ffffffffffffffff81111561218357612182611cbe565b5b61218f84828501612121565b91505092915050565b6121a181611e39565b82525050565b60006020820190506121bc6000830184612198565b92915050565b6000602082840312156121d8576121d7611cb9565b5b60006121e684828501611f0f565b91505092915050565b6121f881611f64565b82525050565b600060208201905061221360008301846121ef565b92915050565b6000819050919050565b600061223e61223961223484611e9c565b612219565b611e9c565b9050919050565b600061225082612223565b9050919050565b600061226282612245565b9050919050565b61227281612257565b82525050565b600060208201905061228d6000830184612269565b92915050565b61229c81611d48565b81146122a757600080fd5b50565b6000813590506122b981612293565b92915050565b600080604083850312156122d6576122d5611cb9565b5b60006122e485828601611f0f565b92505060206122f5858286016122aa565b9150509250929050565b600067ffffffffffffffff82111561231a57612319612024565b5b61232382611dcd565b9050602081019050919050565b600061234361233e846122ff565b612084565b90508281526020810184848401111561235f5761235e61201f565b5b61236a8482856120d0565b509392505050565b600082601f8301126123875761238661201a565b5b8135612397848260208601612330565b91505092915050565b600080600080608085870312156123ba576123b9611cb9565b5b60006123c887828801611f0f565b94505060206123d987828801611f0f565b93505060406123ea87828801611e5a565b925050606085013567ffffffffffffffff81111561240b5761240a611cbe565b5b61241787828801612372565b91505092959194509250565b6000806040838503121561243a57612439611cb9565b5b600061244885828601611f0f565b925050602061245985828601611f0f565b9150509250929050565b7f4e487b7100000000000000000000000000000000000000000000000000000000600052602260045260246000fd5b600060028204905060018216806124aa57607f821691505b602082108114156124be576124bd612463565b5b50919050565b7f4552433732313a20617070726f76616c20746f2063757272656e74206f776e6560008201527f7200000000000000000000000000000000000000000000000000000000000000602082015250565b6000612520602183611d89565b915061252b826124c4565b604082019050919050565b6000602082019050818103600083015261254f81612513565b9050919050565b7f4552433732313a20617070726f76652063616c6c6572206973206e6f7420746f60008201527f6b656e206f776e6572206e6f7220617070726f76656420666f7220616c6c0000602082015250565b60006125b2603e83611d89565b91506125bd82612556565b604082019050919050565b600060208201905081810360008301526125e1816125a5565b9050919050565b7f4e487b7100000000000000000000000000000000000000000000000000000000600052601160045260246000fd5b600061262282611e39565b91507fffffffffffffffffffffffffffffffffffffffffffffffffffffffffffffffff821415612655576126546125e8565b5b600182019050919050565b7f4552433732313a2063616c6c6572206973206e6f7420746f6b656e206f776e6560008201527f72206e6f7220617070726f766564000000000000000000000000000000000000602082015250565b60006126bc602e83611d89565b91506126c782612660565b604082019050919050565b600060208201905081810360008301526126eb816126af565b9050919050565b600081905092915050565b600061270882611d7e565b61271281856126f2565b9350612722818560208601611d9a565b80840191505092915050565b600061273a82846126fd565b915081905092915050565b600061275182856126fd565b915061275d82846126fd565b91508190509392505050565b7f4552433732313a20696e76616c696420746f6b656e2049440000000000000000600082015250565b600061279f601883611d89565b91506127aa82612769565b602082019050919050565b600060208201905081810360008301526127ce81612792565b9050919050565b7f4552433732313a2061646472657373207a65726f206973206e6f74206120766160008201527f6c6964206f776e65720000000000000000000000000000000000000000000000602082015250565b6000612831602983611d89565b915061283c826127d5565b604082019050919050565b6000602082019050818103600083015261286081612824565b9050919050565b600069ffffffffffffffffffff82169050919050565b61288681612867565b811461289157600080fd5b50565b6000815190506128a38161287d565b92915050565b6000815190506128b881611f6e565b92915050565b6000815190506128cd81611e43565b92915050565b600080600080600060a086880312156128ef576128ee611cb9565b5b60006128fd88828901612894565b955050602061290e888289016128a9565b945050604061291f888289016128be565b9350506060612930888289016128be565b925050608061294188828901612894565b9150509295509295909350565b7f7b226e616d65223a220000000000000000000000000000000000000000000000600082015250565b60006129846009836126f2565b915061298f8261294e565b600982019050919050565b7f222c20226465736372697074696f6e223a22416e204e4654207468617420636860008201527f616e676573206261736564206f6e2074686520436861696e6c696e6b2046656560208201527f64222c2000000000000000000000000000000000000000000000000000000000604082015250565b6000612a1c6044836126f2565b9150612a278261299a565b604482019050919050565b7f2261747472696275746573223a205b7b2274726169745f74797065223a20226360008201527f6f6f6c6e657373222c202276616c7565223a203130307d5d2c2022696d61676560208201527f223a220000000000000000000000000000000000000000000000000000000000604082015250565b6000612ab46043836126f2565b9150612abf82612a32565b604382019050919050565b7f227d000000000000000000000000000000000000000000000000000000000000600082015250565b6000612b006002836126f2565b9150612b0b82612aca565b600282019050919050565b6000612b2182612977565b9150612b2d82856126fd565b9150612b3882612a0f565b9150612b4382612aa7565b9150612b4f82846126fd565b9150612b5a82612af3565b91508190509392505050565b6000612b7182611e39565b9150612b7c83611e39565b9250827fffffffffffffffffffffffffffffffffffffffffffffffffffffffffffffffff03821115612bb157612bb06125e8565b5b828201905092915050565b7f4e487b7100000000000000000000000000000000000000000000000000000000600052601260045260246000fd5b6000612bf682611e39565b9150612c0183611e39565b925082612c1157612c10612bbc565b5b828204905092915050565b6000612c2782611e39565b9150612c3283611e39565b9250817fffffffffffffffffffffffffffffffffffffffffffffffffffffffffffffffff0483118215151615612c6b57612c6a6125e8565b5b828202905092915050565b7f4552433732313a207472616e736665722066726f6d20696e636f72726563742060008201527f6f776e6572000000000000000000000000000000000000000000000000000000602082015250565b6000612cd2602583611d89565b9150612cdd82612c76565b604082019050919050565b60006020820190508181036000830152612d0181612cc5565b9050919050565b7f4552433732313a207472616e7366657220746f20746865207a65726f2061646460008201527f7265737300000000000000000000000000000000000000000000000000000000602082015250565b6000612d64602483611d89565b9150612d6f82612d08565b604082019050919050565b60006020820190508181036000830152612d9381612d57565b9050919050565b6000612da582611e39565b9150612db083611e39565b925082821015612dc357612dc26125e8565b5b828203905092915050565b7f4552433732313a20617070726f766520746f2063616c6c657200000000000000600082015250565b6000612e04601983611d89565b9150612e0f82612dce565b602082019050919050565b60006020820190508181036000830152612e3381612df7565b9050919050565b7f4552433732313a207472616e7366657220746f206e6f6e20455243373231526560008201527f63656976657220696d706c656d656e7465720000000000000000000000000000602082015250565b6000612e96603283611d89565b9150612ea182612e3a565b604082019050919050565b60006020820190508181036000830152612ec581612e89565b9050919050565b600081519050919050565b600082825260208201905092915050565b6000612ef382612ecc565b612efd8185612ed7565b9350612f0d818560208601611d9a565b612f1681611dcd565b840191505092915050565b6000608082019050612f366000830187611ece565b612f436020830186611ece565b612f506040830185612198565b8181036060830152612f628184612ee8565b905095945050505050565b600081519050612f7c81611cef565b92915050565b600060208284031215612f9857612f97611cb9565b5b6000612fa684828501612f6d565b91505092915050565b7f4552433732313a206d696e7420746f20746865207a65726f2061646472657373600082015250565b6000612fe5602083611d89565b9150612ff082612faf565b602082019050919050565b6000602082019050818103600083015261301481612fd8565b9050919050565b7f4552433732313a20746f6b656e20616c7265616479206d696e74656400000000600082015250565b6000613051601c83611d89565b915061305c8261301b565b602082019050919050565b6000602082019050818103600083015261308081613044565b905091905056fe4142434445464748494a4b4c4d4e4f505152535455565758595a6162636465666768696a6b6c6d6e6f707172737475767778797a303132333435363738392b2fa26469706673582212203ea081a544cbfd2d09765d55fd4fd92ce95164605d7347f38296f9202ef87b8464736f6c634300080800334142434445464748494a4b4c4d4e4f505152535455565758595a6162636465666768696a6b6c6d6e6f707172737475767778797a303132333435363738392b2f",
  "devdoc": {
    "kind": "dev",
    "methods": {
      "approve(address,uint256)": {
        "details": "See {IERC721-approve}."
      },
      "balanceOf(address)": {
        "details": "See {IERC721-balanceOf}."
      },
      "getApproved(uint256)": {
        "details": "See {IERC721-getApproved}."
      },
      "isApprovedForAll(address,address)": {
        "details": "See {IERC721-isApprovedForAll}."
      },
      "name()": {
        "details": "See {IERC721Metadata-name}."
      },
      "ownerOf(uint256)": {
        "details": "See {IERC721-ownerOf}."
      },
      "safeTransferFrom(address,address,uint256)": {
        "details": "See {IERC721-safeTransferFrom}."
      },
      "safeTransferFrom(address,address,uint256,bytes)": {
        "details": "See {IERC721-safeTransferFrom}."
      },
      "setApprovalForAll(address,bool)": {
        "details": "See {IERC721-setApprovalForAll}."
      },
      "supportsInterface(bytes4)": {
        "details": "See {IERC165-supportsInterface}."
      },
      "symbol()": {
        "details": "See {IERC721Metadata-symbol}."
      },
      "tokenURI(uint256)": {
        "details": "See {IERC721Metadata-tokenURI}."
      },
      "transferFrom(address,address,uint256)": {
        "details": "See {IERC721-transferFrom}."
      }
    },
    "version": 1
  },
  "userdoc": {
    "kind": "user",
    "methods": {},
    "version": 1
  },
  "storageLayout": {
    "storage": [
      {
        "astId": 71,
        "contract": "contracts/DynamicSvgNft.sol:DynamicSvgNft",
        "label": "_name",
        "offset": 0,
        "slot": "0",
        "type": "t_string_storage"
      },
      {
        "astId": 73,
        "contract": "contracts/DynamicSvgNft.sol:DynamicSvgNft",
        "label": "_symbol",
        "offset": 0,
        "slot": "1",
        "type": "t_string_storage"
      },
      {
        "astId": 77,
        "contract": "contracts/DynamicSvgNft.sol:DynamicSvgNft",
        "label": "_owners",
        "offset": 0,
        "slot": "2",
        "type": "t_mapping(t_uint256,t_address)"
      },
      {
        "astId": 81,
        "contract": "contracts/DynamicSvgNft.sol:DynamicSvgNft",
        "label": "_balances",
        "offset": 0,
        "slot": "3",
        "type": "t_mapping(t_address,t_uint256)"
      },
      {
        "astId": 85,
        "contract": "contracts/DynamicSvgNft.sol:DynamicSvgNft",
        "label": "_tokenApprovals",
        "offset": 0,
        "slot": "4",
        "type": "t_mapping(t_uint256,t_address)"
      },
      {
        "astId": 91,
        "contract": "contracts/DynamicSvgNft.sol:DynamicSvgNft",
        "label": "_operatorApprovals",
        "offset": 0,
        "slot": "5",
        "type": "t_mapping(t_address,t_mapping(t_address,t_bool))"
      },
      {
        "astId": 1778,
        "contract": "contracts/DynamicSvgNft.sol:DynamicSvgNft",
        "label": "s_tokenCounter",
        "offset": 0,
        "slot": "6",
        "type": "t_uint256"
      },
      {
        "astId": 1780,
        "contract": "contracts/DynamicSvgNft.sol:DynamicSvgNft",
        "label": "s_lowImageURI",
        "offset": 0,
        "slot": "7",
        "type": "t_string_storage"
      },
      {
        "astId": 1782,
        "contract": "contracts/DynamicSvgNft.sol:DynamicSvgNft",
        "label": "s_highImageURI",
        "offset": 0,
        "slot": "8",
        "type": "t_string_storage"
      },
      {
        "astId": 1792,
        "contract": "contracts/DynamicSvgNft.sol:DynamicSvgNft",
        "label": "s_tokenIdToHighValue",
        "offset": 0,
        "slot": "9",
        "type": "t_mapping(t_uint256,t_int256)"
      }
    ],
    "types": {
      "t_address": {
        "encoding": "inplace",
        "label": "address",
        "numberOfBytes": "20"
      },
      "t_bool": {
        "encoding": "inplace",
        "label": "bool",
        "numberOfBytes": "1"
      },
      "t_int256": {
        "encoding": "inplace",
        "label": "int256",
        "numberOfBytes": "32"
      },
      "t_mapping(t_address,t_bool)": {
        "encoding": "mapping",
        "key": "t_address",
        "label": "mapping(address => bool)",
        "numberOfBytes": "32",
        "value": "t_bool"
      },
      "t_mapping(t_address,t_mapping(t_address,t_bool))": {
        "encoding": "mapping",
        "key": "t_address",
        "label": "mapping(address => mapping(address => bool))",
        "numberOfBytes": "32",
        "value": "t_mapping(t_address,t_bool)"
      },
      "t_mapping(t_address,t_uint256)": {
        "encoding": "mapping",
        "key": "t_address",
        "label": "mapping(address => uint256)",
        "numberOfBytes": "32",
        "value": "t_uint256"
      },
      "t_mapping(t_uint256,t_address)": {
        "encoding": "mapping",
        "key": "t_uint256",
        "label": "mapping(uint256 => address)",
        "numberOfBytes": "32",
        "value": "t_address"
      },
      "t_mapping(t_uint256,t_int256)": {
        "encoding": "mapping",
        "key": "t_uint256",
        "label": "mapping(uint256 => int256)",
        "numberOfBytes": "32",
        "value": "t_int256"
      },
      "t_string_storage": {
        "encoding": "bytes",
        "label": "string",
        "numberOfBytes": "32"
      },
      "t_uint256": {
        "encoding": "inplace",
        "label": "uint256",
        "numberOfBytes": "32"
      }
    }
  }
}