{
  "address": "0x23D339132671ba2874a1eDAF77634eBc7B3Cb3ba",
  "abi": [
    {
      "inputs": [
        {
          "internalType": "address",
          "name": "vrfCoordinatorV2",
          "type": "address"
        },
        {
          "internalType": "bytes32",
          "name": "gasLane",
          "type": "bytes32"
        },
        {
          "internalType": "uint64",
          "name": "subscriptionId",
          "type": "uint64"
        },
        {
          "internalType": "uint32",
          "name": "callbackGasLimit",
          "type": "uint32"
        },
        {
          "internalType": "string[3]",
          "name": "dogTokenUris",
          "type": "string[3]"
        },
        {
          "internalType": "uint256",
          "name": "mintFee",
          "type": "uint256"
        }
      ],
      "stateMutability": "nonpayable",
      "type": "constructor"
    },
    {
      "inputs": [
        {
          "internalType": "address",
          "name": "have",
          "type": "address"
        },
        {
          "internalType": "address",
          "name": "want",
          "type": "address"
        }
      ],
      "name": "OnlyCoordinatorCanFulfill",
      "type": "error"
    },
    {
      "inputs": [],
      "name": "RandomIpfsNft__NeedMoreETHSent",
      "type": "error"
    },
    {
      "inputs": [],
      "name": "RandomIpfsNft__WithdrawFailed",
      "type": "error"
    },
    {
      "anonymous": false,
      "inputs": [
        {
          "indexed": true,
          "internalType": "address",
          "name": "owner",
          "type": "address"
        },
        {
          "indexed": true,
          "internalType": "address",
          "name": "approved",
          "type": "address"
        },
        {
          "indexed": true,
          "internalType": "uint256",
          "name": "tokenId",
          "type": "uint256"
        }
      ],
      "name": "Approval",
      "type": "event"
    },
    {
      "anonymous": false,
      "inputs": [
        {
          "indexed": true,
          "internalType": "address",
          "name": "owner",
          "type": "address"
        },
        {
          "indexed": true,
          "internalType": "address",
          "name": "operator",
          "type": "address"
        },
        {
          "indexed": false,
          "internalType": "bool",
          "name": "approved",
          "type": "bool"
        }
      ],
      "name": "ApprovalForAll",
      "type": "event"
    },
    {
      "anonymous": false,
      "inputs": [
        {
          "indexed": false,
          "internalType": "enum RandomIpfsNft.Breed",
          "name": "dogBreed",
          "type": "uint8"
        },
        {
          "indexed": false,
          "internalType": "address",
          "name": "minter",
          "type": "address"
        }
      ],
      "name": "NftMinted",
      "type": "event"
    },
    {
      "anonymous": false,
      "inputs": [
        {
          "indexed": true,
          "internalType": "uint256",
          "name": "requestId",
          "type": "uint256"
        },
        {
          "indexed": true,
          "internalType": "address",
          "name": "requester",
          "type": "address"
        }
      ],
      "name": "NftRequested",
      "type": "event"
    },
    {
      "anonymous": false,
      "inputs": [
        {
          "indexed": true,
          "internalType": "address",
          "name": "previousOwner",
          "type": "address"
        },
        {
          "indexed": true,
          "internalType": "address",
          "name": "newOwner",
          "type": "address"
        }
      ],
      "name": "OwnershipTransferred",
      "type": "event"
    },
    {
      "anonymous": false,
      "inputs": [
        {
          "indexed": true,
          "internalType": "address",
          "name": "from",
          "type": "address"
        },
        {
          "indexed": true,
          "internalType": "address",
          "name": "to",
          "type": "address"
        },
        {
          "indexed": true,
          "internalType": "uint256",
          "name": "tokenId",
          "type": "uint256"
        }
      ],
      "name": "Transfer",
      "type": "event"
    },
    {
      "inputs": [
        {
          "internalType": "address",
          "name": "to",
          "type": "address"
        },
        {
          "internalType": "uint256",
          "name": "tokenId",
          "type": "uint256"
        }
      ],
      "name": "approve",
      "outputs": [],
      "stateMutability": "nonpayable",
      "type": "function"
    },
    {
      "inputs": [
        {
          "internalType": "address",
          "name": "owner",
          "type": "address"
        }
      ],
      "name": "balanceOf",
      "outputs": [
        {
          "internalType": "uint256",
          "name": "",
          "type": "uint256"
        }
      ],
      "stateMutability": "view",
      "type": "function"
    },
    {
      "inputs": [
        {
          "internalType": "uint256",
          "name": "tokenId",
          "type": "uint256"
        }
      ],
      "name": "getApproved",
      "outputs": [
        {
          "internalType": "address",
          "name": "",
          "type": "address"
        }
      ],
      "stateMutability": "view",
      "type": "function"
    },
    {
      "inputs": [
        {
          "internalType": "uint256",
          "name": "moddedRng",
          "type": "uint256"
        }
      ],
      "name": "getBreedFromModdedRng",
      "outputs": [
        {
          "internalType": "enum RandomIpfsNft.Breed",
          "name": "",
          "type": "uint8"
        }
      ],
      "stateMutability": "pure",
      "type": "function"
    },
    {
      "inputs": [],
      "name": "getChanceArray",
      "outputs": [
        {
          "internalType": "uint256[3]",
          "name": "",
          "type": "uint256[3]"
        }
      ],
      "stateMutability": "pure",
      "type": "function"
    },
    {
      "inputs": [
        {
          "internalType": "uint256",
          "name": "index",
          "type": "uint256"
        }
      ],
      "name": "getDogTokenUri",
      "outputs": [
        {
          "internalType": "string",
          "name": "",
          "type": "string"
        }
      ],
      "stateMutability": "view",
      "type": "function"
    },
    {
      "inputs": [],
      "name": "getMintFee",
      "outputs": [
        {
          "internalType": "uint256",
          "name": "",
          "type": "uint256"
        }
      ],
      "stateMutability": "view",
      "type": "function"
    },
    {
      "inputs": [],
      "name": "getTokenCounter",
      "outputs": [
        {
          "internalType": "uint256",
          "name": "",
          "type": "uint256"
        }
      ],
      "stateMutability": "view",
      "type": "function"
    },
    {
      "inputs": [
        {
          "internalType": "address",
          "name": "owner",
          "type": "address"
        },
        {
          "internalType": "address",
          "name": "operator",
          "type": "address"
        }
      ],
      "name": "isApprovedForAll",
      "outputs": [
        {
          "internalType": "bool",
          "name": "",
          "type": "bool"
        }
      ],
      "stateMutability": "view",
      "type": "function"
    },
    {
      "inputs": [],
      "name": "name",
      "outputs": [
        {
          "internalType": "string",
          "name": "",
          "type": "string"
        }
      ],
      "stateMutability": "view",
      "type": "function"
    },
    {
      "inputs": [],
      "name": "owner",
      "outputs": [
        {
          "internalType": "address",
          "name": "",
          "type": "address"
        }
      ],
      "stateMutability": "view",
      "type": "function"
    },
    {
      "inputs": [
        {
          "internalType": "uint256",
          "name": "tokenId",
          "type": "uint256"
        }
      ],
      "name": "ownerOf",
      "outputs": [
        {
          "internalType": "address",
          "name": "",
          "type": "address"
        }
      ],
      "stateMutability": "view",
      "type": "function"
    },
    {
      "inputs": [
        {
          "internalType": "uint256",
          "name": "requestId",
          "type": "uint256"
        },
        {
          "internalType": "uint256[]",
          "name": "randomWords",
          "type": "uint256[]"
        }
      ],
      "name": "rawFulfillRandomWords",
      "outputs": [],
      "stateMutability": "nonpayable",
      "type": "function"
    },
    {
      "inputs": [],
      "name": "renounceOwnership",
      "outputs": [],
      "stateMutability": "nonpayable",
      "type": "function"
    },
    {
      "inputs": [],
      "name": "requestNft",
      "outputs": [
        {
          "internalType": "uint256",
          "name": "",
          "type": "uint256"
        }
      ],
      "stateMutability": "payable",
      "type": "function"
    },
    {
      "inputs": [
        {
          "internalType": "uint256",
          "name": "",
          "type": "uint256"
        }
      ],
      "name": "s_requestIdToSender",
      "outputs": [
        {
          "internalType": "address",
          "name": "",
          "type": "address"
        }
      ],
      "stateMutability": "view",
      "type": "function"
    },
    {
      "inputs": [
        {
          "internalType": "address",
          "name": "from",
          "type": "address"
        },
        {
          "internalType": "address",
          "name": "to",
          "type": "address"
        },
        {
          "internalType": "uint256",
          "name": "tokenId",
          "type": "uint256"
        }
      ],
      "name": "safeTransferFrom",
      "outputs": [],
      "stateMutability": "nonpayable",
      "type": "function"
    },
    {
      "inputs": [
        {
          "internalType": "address",
          "name": "from",
          "type": "address"
        },
        {
          "internalType": "address",
          "name": "to",
          "type": "address"
        },
        {
          "internalType": "uint256",
          "name": "tokenId",
          "type": "uint256"
        },
        {
          "internalType": "bytes",
          "name": "data",
          "type": "bytes"
        }
      ],
      "name": "safeTransferFrom",
      "outputs": [],
      "stateMutability": "nonpayable",
      "type": "function"
    },
    {
      "inputs": [
        {
          "internalType": "address",
          "name": "operator",
          "type": "address"
        },
        {
          "internalType": "bool",
          "name": "approved",
          "type": "bool"
        }
      ],
      "name": "setApprovalForAll",
      "outputs": [],
      "stateMutability": "nonpayable",
      "type": "function"
    },
    {
      "inputs": [
        {
          "internalType": "bytes4",
          "name": "interfaceId",
          "type": "bytes4"
        }
      ],
      "name": "supportsInterface",
      "outputs": [
        {
          "internalType": "bool",
          "name": "",
          "type": "bool"
        }
      ],
      "stateMutability": "view",
      "type": "function"
    },
    {
      "inputs": [],
      "name": "symbol",
      "outputs": [
        {
          "internalType": "string",
          "name": "",
          "type": "string"
        }
      ],
      "stateMutability": "view",
      "type": "function"
    },
    {
      "inputs": [
        {
          "internalType": "uint256",
          "name": "tokenId",
          "type": "uint256"
        }
      ],
      "name": "tokenURI",
      "outputs": [
        {
          "internalType": "string",
          "name": "",
          "type": "string"
        }
      ],
      "stateMutability": "view",
      "type": "function"
    },
    {
      "inputs": [
        {
          "internalType": "address",
          "name": "from",
          "type": "address"
        },
        {
          "internalType": "address",
          "name": "to",
          "type": "address"
        },
        {
          "internalType": "uint256",
          "name": "tokenId",
          "type": "uint256"
        }
      ],
      "name": "transferFrom",
      "outputs": [],
      "stateMutability": "nonpayable",
      "type": "function"
    },
    {
      "inputs": [
        {
          "internalType": "address",
          "name": "newOwner",
          "type": "address"
        }
      ],
      "name": "transferOwnership",
      "outputs": [],
      "stateMutability": "nonpayable",
      "type": "function"
    },
    {
      "inputs": [],
      "name": "withdraw",
      "outputs": [],
      "stateMutability": "nonpayable",
      "type": "function"
    }
  ],
  "transactionHash": "0x08d701167a5a9f7125b2ffb99160b4383afa68ce552b964a14c25974bf77bd13",
  "args": [
    "0x6168499c0cFfCaCD319c818142124B7A15E857ab",
    "0xd89b2bf150e3b9e13446986e571fb9cab24b13cea0a43ea20a6049a85cc807cc",
    "8775",
    "500000",
    [
      "ipfs://QmaVkBn2tKmjbhphU7eyztbvSQU5EXDdqRyXZtRhSGgJGo",
      "ipfs://QmYQC5aGZu2PTH8XzbJrbDnvhj3gVs7ya33H9mqUNvST3d",
      "ipfs://QmZYmH5iDbD6v3U2ixoVAjioSzvWJszDzYdbeCLquGSpVm"
    ],
    "10000000000000000"
  ],
  "numDeployments": 1,
  "solcInputHash": "834d0c50066b6c264195ccc5ed1bbbf6",
  "bytecode": "0x6101406040523480156200001257600080fd5b506040516200424538038062004245833981810160405281019062000038919062000806565b856040518060400160405280600f81526020017f52616e646f6d2049504653204e465400000000000000000000000000000000008152506040518060400160405280600381526020017f52494e00000000000000000000000000000000000000000000000000000000008152508160009080519060200190620000bd929190620002a6565b508060019080519060200190620000d6929190620002a6565b5050508073ffffffffffffffffffffffffffffffffffffffff1660808173ffffffffffffffffffffffffffffffffffffffff1660601b81525050506200013162000125620001d860201b60201c565b620001e060201b60201c565b60006009819055508460c081815250508263ffffffff166101008163ffffffff1660e01b815250508367ffffffffffffffff1660e08167ffffffffffffffff1660c01b815250508573ffffffffffffffffffffffffffffffffffffffff1660a08173ffffffffffffffffffffffffffffffffffffffff1660601b8152505081600a906003620001c292919062000337565b5080610120818152505050505050505062000926565b600033905090565b6000600760009054906101000a900473ffffffffffffffffffffffffffffffffffffffff16905081600760006101000a81548173ffffffffffffffffffffffffffffffffffffffff021916908373ffffffffffffffffffffffffffffffffffffffff1602179055508173ffffffffffffffffffffffffffffffffffffffff168173ffffffffffffffffffffffffffffffffffffffff167f8be0079c531659141344cd1fd0a4f28419497f9722a3daafe3b4186f6b6457e060405160405180910390a35050565b828054620002b490620008f0565b90600052602060002090601f016020900481019282620002d8576000855562000324565b82601f10620002f357805160ff191683800117855562000324565b8280016001018555821562000324579182015b828111156200032357825182559160200191906001019062000306565b5b50905062000333919062000391565b5090565b82600381019282156200037e579160200282015b828111156200037d5782518290805190602001906200036c929190620002a6565b50916020019190600101906200034b565b5b5090506200038d9190620003b0565b5090565b5b80821115620003ac57600081600090555060010162000392565b5090565b5b80821115620003d45760008181620003ca9190620003d8565b50600101620003b1565b5090565b508054620003e690620008f0565b6000825580601f10620003fa57506200041b565b601f0160209004906000526020600020908101906200041a919062000391565b5b50565b6000604051905090565b600080fd5b600080fd5b600073ffffffffffffffffffffffffffffffffffffffff82169050919050565b60006200045f8262000432565b9050919050565b620004718162000452565b81146200047d57600080fd5b50565b600081519050620004918162000466565b92915050565b6000819050919050565b620004ac8162000497565b8114620004b857600080fd5b50565b600081519050620004cc81620004a1565b92915050565b600067ffffffffffffffff82169050919050565b620004f181620004d2565b8114620004fd57600080fd5b50565b6000815190506200051181620004e6565b92915050565b600063ffffffff82169050919050565b620005328162000517565b81146200053e57600080fd5b50565b600081519050620005528162000527565b92915050565b600080fd5b6000601f19601f8301169050919050565b7f4e487b7100000000000000000000000000000000000000000000000000000000600052604160045260246000fd5b620005a8826200055d565b810181811067ffffffffffffffff82111715620005ca57620005c96200056e565b5b80604052505050565b6000620005df6200041e565b9050620005ed82826200059d565b919050565b600067ffffffffffffffff82111562000610576200060f6200056e565b5b602082029050919050565b600080fd5b600080fd5b600067ffffffffffffffff8211156200064357620006426200056e565b5b6200064e826200055d565b9050602081019050919050565b60005b838110156200067b5780820151818401526020810190506200065e565b838111156200068b576000848401525b50505050565b6000620006a8620006a28462000625565b620005d3565b905082815260208101848484011115620006c757620006c662000620565b5b620006d48482856200065b565b509392505050565b600082601f830112620006f457620006f362000558565b5b81516200070684826020860162000691565b91505092915050565b6000620007266200072084620005f2565b620005d3565b905080602084028301858111156200074357620007426200061b565b5b835b818110156200079157805167ffffffffffffffff8111156200076c576200076b62000558565b5b8086016200077b8982620006dc565b8552602085019450505060208101905062000745565b5050509392505050565b600082601f830112620007b357620007b262000558565b5b6003620007c28482856200070f565b91505092915050565b6000819050919050565b620007e081620007cb565b8114620007ec57600080fd5b50565b6000815190506200080081620007d5565b92915050565b60008060008060008060c0878903121562000826576200082562000428565b5b60006200083689828a0162000480565b96505060206200084989828a01620004bb565b95505060406200085c89828a0162000500565b94505060606200086f89828a0162000541565b935050608087015167ffffffffffffffff8111156200089357620008926200042d565b5b620008a189828a016200079b565b92505060a0620008b489828a01620007ef565b9150509295509295509295565b7f4e487b7100000000000000000000000000000000000000000000000000000000600052602260045260246000fd5b600060028204905060018216806200090957607f821691505b6020821081141562000920576200091f620008c1565b5b50919050565b60805160601c60a05160601c60c05160e05160c01c6101005160e01c610120516138b56200099060003960008181610d1b0152610eb401526000610f9001526000610f6d01526000610f4c01526000610f100152600081816108d1015261092501526138b56000f3fe6080604052600436106101665760003560e01c8063715018a6116100d1578063a36f573b1161008a578063b88d4fde11610064578063b88d4fde14610531578063c87b56dd1461055a578063e985e9c514610597578063f2fde38b146105d457610166565b8063a36f573b14610499578063a51cccf3146104d6578063aa1524911461051357610166565b8063715018a61461039b578063741a63fa146103b25780637a5caab3146103ef5780638da5cb5b1461041a57806395d89b4114610445578063a22cb4651461047057610166565b80633ccfd60b116101235780633ccfd60b1461028b57806342842e0e146102a25780635dacf5f4146102cb5780636352211e146102f65780636e02007d1461033357806370a082311461035e57610166565b806301ffc9a71461016b57806306fdde03146101a8578063081812fc146101d3578063095ea7b3146102105780631fe543e31461023957806323b872dd14610262575b600080fd5b34801561017757600080fd5b50610192600480360381019061018d9190612463565b6105fd565b60405161019f91906124ab565b60405180910390f35b3480156101b457600080fd5b506101bd6106df565b6040516101ca919061255f565b60405180910390f35b3480156101df57600080fd5b506101fa60048036038101906101f591906125b7565b610771565b6040516102079190612625565b60405180910390f35b34801561021c57600080fd5b506102376004803603810190610232919061266c565b6107b7565b005b34801561024557600080fd5b50610260600480360381019061025b91906127f4565b6108cf565b005b34801561026e57600080fd5b5061028960048036038101906102849190612850565b61098f565b005b34801561029757600080fd5b506102a06109ef565b005b3480156102ae57600080fd5b506102c960048036038101906102c49190612850565b610a9d565b005b3480156102d757600080fd5b506102e0610abd565b6040516102ed919061294e565b60405180910390f35b34801561030257600080fd5b5061031d600480360381019061031891906125b7565b610ae8565b60405161032a9190612625565b60405180910390f35b34801561033f57600080fd5b50610348610b9a565b6040516103559190612978565b60405180910390f35b34801561036a57600080fd5b5061038560048036038101906103809190612993565b610ba4565b6040516103929190612978565b60405180910390f35b3480156103a757600080fd5b506103b0610c5c565b005b3480156103be57600080fd5b506103d960048036038101906103d491906125b7565b610c70565b6040516103e6919061255f565b60405180910390f35b3480156103fb57600080fd5b50610404610d17565b6040516104119190612978565b60405180910390f35b34801561042657600080fd5b5061042f610d3f565b60405161043c9190612625565b60405180910390f35b34801561045157600080fd5b5061045a610d69565b604051610467919061255f565b60405180910390f35b34801561047c57600080fd5b50610497600480360381019061049291906129ec565b610dfb565b005b3480156104a557600080fd5b506104c060048036038101906104bb91906125b7565b610e11565b6040516104cd9190612625565b60405180910390f35b3480156104e257600080fd5b506104fd60048036038101906104f891906125b7565b610e44565b60405161050a9190612aa3565b60405180910390f35b61051b610eb0565b6040516105289190612978565b60405180910390f35b34801561053d57600080fd5b5061055860048036038101906105539190612b73565b6110c2565b005b34801561056657600080fd5b50610581600480360381019061057c91906125b7565b611124565b60405161058e919061255f565b60405180910390f35b3480156105a357600080fd5b506105be60048036038101906105b99190612bf6565b611237565b6040516105cb91906124ab565b60405180910390f35b3480156105e057600080fd5b506105fb60048036038101906105f69190612993565b6112cb565b005b60007f80ac58cd000000000000000000000000000000000000000000000000000000007bffffffffffffffffffffffffffffffffffffffffffffffffffffffff1916827bffffffffffffffffffffffffffffffffffffffffffffffffffffffff191614806106c857507f5b5e139f000000000000000000000000000000000000000000000000000000007bffffffffffffffffffffffffffffffffffffffffffffffffffffffff1916827bffffffffffffffffffffffffffffffffffffffffffffffffffffffff1916145b806106d857506106d78261134f565b5b9050919050565b6060600080546106ee90612c65565b80601f016020809104026020016040519081016040528092919081815260200182805461071a90612c65565b80156107675780601f1061073c57610100808354040283529160200191610767565b820191906000526020600020905b81548152906001019060200180831161074a57829003601f168201915b5050505050905090565b600061077c826113b9565b6004600083815260200190815260200160002060009054906101000a900473ffffffffffffffffffffffffffffffffffffffff169050919050565b60006107c282610ae8565b90508073ffffffffffffffffffffffffffffffffffffffff168373ffffffffffffffffffffffffffffffffffffffff161415610833576040517f08c379a000000000000000000000000000000000000000000000000000000000815260040161082a90612d09565b60405180910390fd5b8073ffffffffffffffffffffffffffffffffffffffff16610852611404565b73ffffffffffffffffffffffffffffffffffffffff16148061088157506108808161087b611404565b611237565b5b6108c0576040517f08c379a00000000000000000000000000000000000000000000000000000000081526004016108b790612d9b565b60405180910390fd5b6108ca838361140c565b505050565b7f000000000000000000000000000000000000000000000000000000000000000073ffffffffffffffffffffffffffffffffffffffff163373ffffffffffffffffffffffffffffffffffffffff161461098157337f00000000000000000000000000000000000000000000000000000000000000006040517f1cf993f4000000000000000000000000000000000000000000000000000000008152600401610978929190612dbb565b60405180910390fd5b61098b82826114c5565b5050565b6109a061099a611404565b82611652565b6109df576040517f08c379a00000000000000000000000000000000000000000000000000000000081526004016109d690612e56565b60405180910390fd5b6109ea8383836116e7565b505050565b6109f761194e565b60003373ffffffffffffffffffffffffffffffffffffffff1647604051610a1d90612ea7565b60006040518083038185875af1925050503d8060008114610a5a576040519150601f19603f3d011682016040523d82523d6000602084013e610a5f565b606091505b5050905080610a9a576040517f61746da100000000000000000000000000000000000000000000000000000000815260040160405180910390fd5b50565b610ab8838383604051806020016040528060008152506110c2565b505050565b610ac5612332565b6040518060600160405280600a8152602001601e81526020016064815250905090565b6000806002600084815260200190815260200160002060009054906101000a900473ffffffffffffffffffffffffffffffffffffffff169050600073ffffffffffffffffffffffffffffffffffffffff168173ffffffffffffffffffffffffffffffffffffffff161415610b91576040517f08c379a0000000000000000000000000000000000000000000000000000000008152600401610b8890612f08565b60405180910390fd5b80915050919050565b6000600954905090565b60008073ffffffffffffffffffffffffffffffffffffffff168273ffffffffffffffffffffffffffffffffffffffff161415610c15576040517f08c379a0000000000000000000000000000000000000000000000000000000008152600401610c0c90612f9a565b60405180910390fd5b600360008373ffffffffffffffffffffffffffffffffffffffff1673ffffffffffffffffffffffffffffffffffffffff168152602001908152602001600020549050919050565b610c6461194e565b610c6e60006119cc565b565b6060600a8260038110610c8657610c85612fba565b5b018054610c9290612c65565b80601f0160208091040260200160405190810160405280929190818152602001828054610cbe90612c65565b8015610d0b5780601f10610ce057610100808354040283529160200191610d0b565b820191906000526020600020905b815481529060010190602001808311610cee57829003601f168201915b50505050509050919050565b60007f0000000000000000000000000000000000000000000000000000000000000000905090565b6000600760009054906101000a900473ffffffffffffffffffffffffffffffffffffffff16905090565b606060018054610d7890612c65565b80601f0160208091040260200160405190810160405280929190818152602001828054610da490612c65565b8015610df15780601f10610dc657610100808354040283529160200191610df1565b820191906000526020600020905b815481529060010190602001808311610dd457829003601f168201915b5050505050905090565b610e0d610e06611404565b8383611a92565b5050565b60086020528060005260406000206000915054906101000a900473ffffffffffffffffffffffffffffffffffffffff1681565b6000610e4e610abd565b600060038110610e6157610e60612fba565b5b6020020151821015610e765760009050610eab565b610e7e610abd565b600160038110610e9157610e90612fba565b5b6020020151821015610ea65760019050610eab565b600290505b919050565b60007f0000000000000000000000000000000000000000000000000000000000000000341015610f0c576040517fb90f491000000000000000000000000000000000000000000000000000000000815260040160405180910390fd5b60007f000000000000000000000000000000000000000000000000000000000000000073ffffffffffffffffffffffffffffffffffffffff16635d3b1d307f00000000000000000000000000000000000000000000000000000000000000007f000000000000000000000000000000000000000000000000000000000000000060037f000000000000000000000000000000000000000000000000000000000000000060016040518663ffffffff1660e01b8152600401610fd1959493929190613061565b602060405180830381600087803b158015610feb57600080fd5b505af1158015610fff573d6000803e3d6000fd5b505050506040513d601f19601f8201168201806040525081019061102391906130c9565b9050336008600083815260200190815260200160002060006101000a81548173ffffffffffffffffffffffffffffffffffffffff021916908373ffffffffffffffffffffffffffffffffffffffff1602179055503373ffffffffffffffffffffffffffffffffffffffff16817ff873236e6cc0ecc5be1a9a35c95ee5b8d1ac4cc7bfef0cc5060391d6cc98e26b60405160405180910390a38091505090565b6110d36110cd611404565b83611652565b611112576040517f08c379a000000000000000000000000000000000000000000000000000000000815260040161110990612e56565b60405180910390fd5b61111e84848484611bff565b50505050565b606061112f826113b9565b600060066000848152602001908152602001600020805461114f90612c65565b80601f016020809104026020016040519081016040528092919081815260200182805461117b90612c65565b80156111c85780601f1061119d576101008083540402835291602001916111c8565b820191906000526020600020905b8154815290600101906020018083116111ab57829003601f168201915b5050505050905060006111d9611c5b565b90506000815114156111ef578192505050611232565b60008251111561122457808260405160200161120c929190613132565b60405160208183030381529060405292505050611232565b61122d84611c72565b925050505b919050565b6000600560008473ffffffffffffffffffffffffffffffffffffffff1673ffffffffffffffffffffffffffffffffffffffff16815260200190815260200160002060008373ffffffffffffffffffffffffffffffffffffffff1673ffffffffffffffffffffffffffffffffffffffff16815260200190815260200160002060009054906101000a900460ff16905092915050565b6112d361194e565b600073ffffffffffffffffffffffffffffffffffffffff168173ffffffffffffffffffffffffffffffffffffffff161415611343576040517f08c379a000000000000000000000000000000000000000000000000000000000815260040161133a906131c8565b60405180910390fd5b61134c816119cc565b50565b60007f01ffc9a7000000000000000000000000000000000000000000000000000000007bffffffffffffffffffffffffffffffffffffffffffffffffffffffff1916827bffffffffffffffffffffffffffffffffffffffffffffffffffffffff1916149050919050565b6113c281611cda565b611401576040517f08c379a00000000000000000000000000000000000000000000000000000000081526004016113f890612f08565b60405180910390fd5b50565b600033905090565b816004600083815260200190815260200160002060006101000a81548173ffffffffffffffffffffffffffffffffffffffff021916908373ffffffffffffffffffffffffffffffffffffffff160217905550808273ffffffffffffffffffffffffffffffffffffffff1661147f83610ae8565b73ffffffffffffffffffffffffffffffffffffffff167f8c5be1e5ebec7d5bd14f71427d1e84f3dd0314c0f7b2291e5b200ac8c7c3b92560405160405180910390a45050565b60006008600084815260200190815260200160002060009054906101000a900473ffffffffffffffffffffffffffffffffffffffff169050600060648360008151811061151557611514612fba565b5b60200260200101516115279190613217565b9050600061153482610e44565b905061154283600954611d46565b6115fd600954600a83600281111561155d5761155c612a2c565b5b6003811061156e5761156d612fba565b5b01805461157a90612c65565b80601f01602080910402602001604051908101604052809291908181526020018280546115a690612c65565b80156115f35780601f106115c8576101008083540402835291602001916115f3565b820191906000526020600020905b8154815290600101906020018083116115d657829003601f168201915b5050505050611d64565b600160095461160c9190613277565b6009819055507f8a269f26b688e110e9cbd887d163dab35cae678fa353a0292de532c0cac1ecdc81846040516116439291906132cd565b60405180910390a15050505050565b60008061165e83610ae8565b90508073ffffffffffffffffffffffffffffffffffffffff168473ffffffffffffffffffffffffffffffffffffffff1614806116a0575061169f8185611237565b5b806116de57508373ffffffffffffffffffffffffffffffffffffffff166116c684610771565b73ffffffffffffffffffffffffffffffffffffffff16145b91505092915050565b8273ffffffffffffffffffffffffffffffffffffffff1661170782610ae8565b73ffffffffffffffffffffffffffffffffffffffff161461175d576040517f08c379a000000000000000000000000000000000000000000000000000000000815260040161175490613368565b60405180910390fd5b600073ffffffffffffffffffffffffffffffffffffffff168273ffffffffffffffffffffffffffffffffffffffff1614156117cd576040517f08c379a00000000000000000000000000000000000000000000000000000000081526004016117c4906133fa565b60405180910390fd5b6117d8838383611dd8565b6117e360008261140c565b6001600360008573ffffffffffffffffffffffffffffffffffffffff1673ffffffffffffffffffffffffffffffffffffffff1681526020019081526020016000206000828254611833919061341a565b925050819055506001600360008473ffffffffffffffffffffffffffffffffffffffff1673ffffffffffffffffffffffffffffffffffffffff168152602001908152602001600020600082825461188a9190613277565b92505081905550816002600083815260200190815260200160002060006101000a81548173ffffffffffffffffffffffffffffffffffffffff021916908373ffffffffffffffffffffffffffffffffffffffff160217905550808273ffffffffffffffffffffffffffffffffffffffff168473ffffffffffffffffffffffffffffffffffffffff167fddf252ad1be2c89b69c2b068fc378daa952ba7f163c4a11628f55a4df523b3ef60405160405180910390a4611949838383611ddd565b505050565b611956611404565b73ffffffffffffffffffffffffffffffffffffffff16611974610d3f565b73ffffffffffffffffffffffffffffffffffffffff16146119ca576040517f08c379a00000000000000000000000000000000000000000000000000000000081526004016119c19061349a565b60405180910390fd5b565b6000600760009054906101000a900473ffffffffffffffffffffffffffffffffffffffff16905081600760006101000a81548173ffffffffffffffffffffffffffffffffffffffff021916908373ffffffffffffffffffffffffffffffffffffffff1602179055508173ffffffffffffffffffffffffffffffffffffffff168173ffffffffffffffffffffffffffffffffffffffff167f8be0079c531659141344cd1fd0a4f28419497f9722a3daafe3b4186f6b6457e060405160405180910390a35050565b8173ffffffffffffffffffffffffffffffffffffffff168373ffffffffffffffffffffffffffffffffffffffff161415611b01576040517f08c379a0000000000000000000000000000000000000000000000000000000008152600401611af890613506565b60405180910390fd5b80600560008573ffffffffffffffffffffffffffffffffffffffff1673ffffffffffffffffffffffffffffffffffffffff16815260200190815260200160002060008473ffffffffffffffffffffffffffffffffffffffff1673ffffffffffffffffffffffffffffffffffffffff16815260200190815260200160002060006101000a81548160ff0219169083151502179055508173ffffffffffffffffffffffffffffffffffffffff168373ffffffffffffffffffffffffffffffffffffffff167f17307eab39ab6107e8899845ad3d59bd9653f200f220920489ca2b5937696c3183604051611bf291906124ab565b60405180910390a3505050565b611c0a8484846116e7565b611c1684848484611de2565b611c55576040517f08c379a0000000000000000000000000000000000000000000000000000000008152600401611c4c90613598565b60405180910390fd5b50505050565b606060405180602001604052806000815250905090565b6060611c7d826113b9565b6000611c87611c5b565b90506000815111611ca75760405180602001604052806000815250611cd2565b80611cb184611f79565b604051602001611cc2929190613132565b6040516020818303038152906040525b915050919050565b60008073ffffffffffffffffffffffffffffffffffffffff166002600084815260200190815260200160002060009054906101000a900473ffffffffffffffffffffffffffffffffffffffff1673ffffffffffffffffffffffffffffffffffffffff1614159050919050565b611d608282604051806020016040528060008152506120da565b5050565b611d6d82611cda565b611dac576040517f08c379a0000000000000000000000000000000000000000000000000000000008152600401611da39061362a565b60405180910390fd5b80600660008481526020019081526020016000209080519060200190611dd3929190612354565b505050565b505050565b505050565b6000611e038473ffffffffffffffffffffffffffffffffffffffff16612135565b15611f6c578373ffffffffffffffffffffffffffffffffffffffff1663150b7a02611e2c611404565b8786866040518563ffffffff1660e01b8152600401611e4e949392919061369f565b602060405180830381600087803b158015611e6857600080fd5b505af1925050508015611e9957506040513d601f19601f82011682018060405250810190611e969190613700565b60015b611f1c573d8060008114611ec9576040519150601f19603f3d011682016040523d82523d6000602084013e611ece565b606091505b50600081511415611f14576040517f08c379a0000000000000000000000000000000000000000000000000000000008152600401611f0b90613598565b60405180910390fd5b805181602001fd5b63150b7a0260e01b7bffffffffffffffffffffffffffffffffffffffffffffffffffffffff1916817bffffffffffffffffffffffffffffffffffffffffffffffffffffffff191614915050611f71565b600190505b949350505050565b60606000821415611fc1576040518060400160405280600181526020017f300000000000000000000000000000000000000000000000000000000000000081525090506120d5565b600082905060005b60008214611ff3578080611fdc9061372d565b915050600a82611fec9190613776565b9150611fc9565b60008167ffffffffffffffff81111561200f5761200e6126b1565b5b6040519080825280601f01601f1916602001820160405280156120415781602001600182028036833780820191505090505b5090505b600085146120ce5760018261205a919061341a565b9150600a856120699190613217565b60306120759190613277565b60f81b81838151811061208b5761208a612fba565b5b60200101907effffffffffffffffffffffffffffffffffffffffffffffffffffffffffffff1916908160001a905350600a856120c79190613776565b9450612045565b8093505050505b919050565b6120e48383612158565b6120f16000848484611de2565b612130576040517f08c379a000000000000000000000000000000000000000000000000000000000815260040161212790613598565b60405180910390fd5b505050565b6000808273ffffffffffffffffffffffffffffffffffffffff163b119050919050565b600073ffffffffffffffffffffffffffffffffffffffff168273ffffffffffffffffffffffffffffffffffffffff1614156121c8576040517f08c379a00000000000000000000000000000000000000000000000000000000081526004016121bf906137f3565b60405180910390fd5b6121d181611cda565b15612211576040517f08c379a00000000000000000000000000000000000000000000000000000000081526004016122089061385f565b60405180910390fd5b61221d60008383611dd8565b6001600360008473ffffffffffffffffffffffffffffffffffffffff1673ffffffffffffffffffffffffffffffffffffffff168152602001908152602001600020600082825461226d9190613277565b92505081905550816002600083815260200190815260200160002060006101000a81548173ffffffffffffffffffffffffffffffffffffffff021916908373ffffffffffffffffffffffffffffffffffffffff160217905550808273ffffffffffffffffffffffffffffffffffffffff16600073ffffffffffffffffffffffffffffffffffffffff167fddf252ad1be2c89b69c2b068fc378daa952ba7f163c4a11628f55a4df523b3ef60405160405180910390a461232e60008383611ddd565b5050565b6040518060600160405280600390602082028036833780820191505090505090565b82805461236090612c65565b90600052602060002090601f01602090048101928261238257600085556123c9565b82601f1061239b57805160ff19168380011785556123c9565b828001600101855582156123c9579182015b828111156123c85782518255916020019190600101906123ad565b5b5090506123d691906123da565b5090565b5b808211156123f35760008160009055506001016123db565b5090565b6000604051905090565b600080fd5b600080fd5b60007fffffffff0000000000000000000000000000000000000000000000000000000082169050919050565b6124408161240b565b811461244b57600080fd5b50565b60008135905061245d81612437565b92915050565b60006020828403121561247957612478612401565b5b60006124878482850161244e565b91505092915050565b60008115159050919050565b6124a581612490565b82525050565b60006020820190506124c0600083018461249c565b92915050565b600081519050919050565b600082825260208201905092915050565b60005b838110156125005780820151818401526020810190506124e5565b8381111561250f576000848401525b50505050565b6000601f19601f8301169050919050565b6000612531826124c6565b61253b81856124d1565b935061254b8185602086016124e2565b61255481612515565b840191505092915050565b600060208201905081810360008301526125798184612526565b905092915050565b6000819050919050565b61259481612581565b811461259f57600080fd5b50565b6000813590506125b18161258b565b92915050565b6000602082840312156125cd576125cc612401565b5b60006125db848285016125a2565b91505092915050565b600073ffffffffffffffffffffffffffffffffffffffff82169050919050565b600061260f826125e4565b9050919050565b61261f81612604565b82525050565b600060208201905061263a6000830184612616565b92915050565b61264981612604565b811461265457600080fd5b50565b60008135905061266681612640565b92915050565b6000806040838503121561268357612682612401565b5b600061269185828601612657565b92505060206126a2858286016125a2565b9150509250929050565b600080fd5b7f4e487b7100000000000000000000000000000000000000000000000000000000600052604160045260246000fd5b6126e982612515565b810181811067ffffffffffffffff82111715612708576127076126b1565b5b80604052505050565b600061271b6123f7565b905061272782826126e0565b919050565b600067ffffffffffffffff821115612747576127466126b1565b5b602082029050602081019050919050565b600080fd5b600061277061276b8461272c565b612711565b9050808382526020820190506020840283018581111561279357612792612758565b5b835b818110156127bc57806127a888826125a2565b845260208401935050602081019050612795565b5050509392505050565b600082601f8301126127db576127da6126ac565b5b81356127eb84826020860161275d565b91505092915050565b6000806040838503121561280b5761280a612401565b5b6000612819858286016125a2565b925050602083013567ffffffffffffffff81111561283a57612839612406565b5b612846858286016127c6565b9150509250929050565b60008060006060848603121561286957612868612401565b5b600061287786828701612657565b935050602061288886828701612657565b9250506040612899868287016125a2565b9150509250925092565b600060039050919050565b600081905092915050565b6000819050919050565b6128cc81612581565b82525050565b60006128de83836128c3565b60208301905092915050565b6000602082019050919050565b612900816128a3565b61290a81846128ae565b9250612915826128b9565b8060005b8381101561294657815161292d87826128d2565b9650612938836128ea565b925050600181019050612919565b505050505050565b600060608201905061296360008301846128f7565b92915050565b61297281612581565b82525050565b600060208201905061298d6000830184612969565b92915050565b6000602082840312156129a9576129a8612401565b5b60006129b784828501612657565b91505092915050565b6129c981612490565b81146129d457600080fd5b50565b6000813590506129e6816129c0565b92915050565b60008060408385031215612a0357612a02612401565b5b6000612a1185828601612657565b9250506020612a22858286016129d7565b9150509250929050565b7f4e487b7100000000000000000000000000000000000000000000000000000000600052602160045260246000fd5b60038110612a6c57612a6b612a2c565b5b50565b6000819050612a7d82612a5b565b919050565b6000612a8d82612a6f565b9050919050565b612a9d81612a82565b82525050565b6000602082019050612ab86000830184612a94565b92915050565b600080fd5b600067ffffffffffffffff821115612ade57612add6126b1565b5b612ae782612515565b9050602081019050919050565b82818337600083830152505050565b6000612b16612b1184612ac3565b612711565b905082815260208101848484011115612b3257612b31612abe565b5b612b3d848285612af4565b509392505050565b600082601f830112612b5a57612b596126ac565b5b8135612b6a848260208601612b03565b91505092915050565b60008060008060808587031215612b8d57612b8c612401565b5b6000612b9b87828801612657565b9450506020612bac87828801612657565b9350506040612bbd878288016125a2565b925050606085013567ffffffffffffffff811115612bde57612bdd612406565b5b612bea87828801612b45565b91505092959194509250565b60008060408385031215612c0d57612c0c612401565b5b6000612c1b85828601612657565b9250506020612c2c85828601612657565b9150509250929050565b7f4e487b7100000000000000000000000000000000000000000000000000000000600052602260045260246000fd5b60006002820490506001821680612c7d57607f821691505b60208210811415612c9157612c90612c36565b5b50919050565b7f4552433732313a20617070726f76616c20746f2063757272656e74206f776e6560008201527f7200000000000000000000000000000000000000000000000000000000000000602082015250565b6000612cf36021836124d1565b9150612cfe82612c97565b604082019050919050565b60006020820190508181036000830152612d2281612ce6565b9050919050565b7f4552433732313a20617070726f76652063616c6c6572206973206e6f7420746f60008201527f6b656e206f776e6572206e6f7220617070726f76656420666f7220616c6c0000602082015250565b6000612d85603e836124d1565b9150612d9082612d29565b604082019050919050565b60006020820190508181036000830152612db481612d78565b9050919050565b6000604082019050612dd06000830185612616565b612ddd6020830184612616565b9392505050565b7f4552433732313a2063616c6c6572206973206e6f7420746f6b656e206f776e6560008201527f72206e6f7220617070726f766564000000000000000000000000000000000000602082015250565b6000612e40602e836124d1565b9150612e4b82612de4565b604082019050919050565b60006020820190508181036000830152612e6f81612e33565b9050919050565b600081905092915050565b50565b6000612e91600083612e76565b9150612e9c82612e81565b600082019050919050565b6000612eb282612e84565b9150819050919050565b7f4552433732313a20696e76616c696420746f6b656e2049440000000000000000600082015250565b6000612ef26018836124d1565b9150612efd82612ebc565b602082019050919050565b60006020820190508181036000830152612f2181612ee5565b9050919050565b7f4552433732313a2061646472657373207a65726f206973206e6f74206120766160008201527f6c6964206f776e65720000000000000000000000000000000000000000000000602082015250565b6000612f846029836124d1565b9150612f8f82612f28565b604082019050919050565b60006020820190508181036000830152612fb381612f77565b9050919050565b7f4e487b7100000000000000000000000000000000000000000000000000000000600052603260045260246000fd5b6000819050919050565b612ffc81612fe9565b82525050565b600067ffffffffffffffff82169050919050565b61301f81613002565b82525050565b600061ffff82169050919050565b61303c81613025565b82525050565b600063ffffffff82169050919050565b61305b81613042565b82525050565b600060a0820190506130766000830188612ff3565b6130836020830187613016565b6130906040830186613033565b61309d6060830185613052565b6130aa6080830184613052565b9695505050505050565b6000815190506130c38161258b565b92915050565b6000602082840312156130df576130de612401565b5b60006130ed848285016130b4565b91505092915050565b600081905092915050565b600061310c826124c6565b61311681856130f6565b93506131268185602086016124e2565b80840191505092915050565b600061313e8285613101565b915061314a8284613101565b91508190509392505050565b7f4f776e61626c653a206e6577206f776e657220697320746865207a65726f206160008201527f6464726573730000000000000000000000000000000000000000000000000000602082015250565b60006131b26026836124d1565b91506131bd82613156565b604082019050919050565b600060208201905081810360008301526131e1816131a5565b9050919050565b7f4e487b7100000000000000000000000000000000000000000000000000000000600052601260045260246000fd5b600061322282612581565b915061322d83612581565b92508261323d5761323c6131e8565b5b828206905092915050565b7f4e487b7100000000000000000000000000000000000000000000000000000000600052601160045260246000fd5b600061328282612581565b915061328d83612581565b9250827fffffffffffffffffffffffffffffffffffffffffffffffffffffffffffffffff038211156132c2576132c1613248565b5b828201905092915050565b60006040820190506132e26000830185612a94565b6132ef6020830184612616565b9392505050565b7f4552433732313a207472616e736665722066726f6d20696e636f72726563742060008201527f6f776e6572000000000000000000000000000000000000000000000000000000602082015250565b60006133526025836124d1565b915061335d826132f6565b604082019050919050565b6000602082019050818103600083015261338181613345565b9050919050565b7f4552433732313a207472616e7366657220746f20746865207a65726f2061646460008201527f7265737300000000000000000000000000000000000000000000000000000000602082015250565b60006133e46024836124d1565b91506133ef82613388565b604082019050919050565b60006020820190508181036000830152613413816133d7565b9050919050565b600061342582612581565b915061343083612581565b92508282101561344357613442613248565b5b828203905092915050565b7f4f776e61626c653a2063616c6c6572206973206e6f7420746865206f776e6572600082015250565b60006134846020836124d1565b915061348f8261344e565b602082019050919050565b600060208201905081810360008301526134b381613477565b9050919050565b7f4552433732313a20617070726f766520746f2063616c6c657200000000000000600082015250565b60006134f06019836124d1565b91506134fb826134ba565b602082019050919050565b6000602082019050818103600083015261351f816134e3565b9050919050565b7f4552433732313a207472616e7366657220746f206e6f6e20455243373231526560008201527f63656976657220696d706c656d656e7465720000000000000000000000000000602082015250565b60006135826032836124d1565b915061358d82613526565b604082019050919050565b600060208201905081810360008301526135b181613575565b9050919050565b7f45524337323155524953746f726167653a2055524920736574206f66206e6f6e60008201527f6578697374656e7420746f6b656e000000000000000000000000000000000000602082015250565b6000613614602e836124d1565b915061361f826135b8565b604082019050919050565b6000602082019050818103600083015261364381613607565b9050919050565b600081519050919050565b600082825260208201905092915050565b60006136718261364a565b61367b8185613655565b935061368b8185602086016124e2565b61369481612515565b840191505092915050565b60006080820190506136b46000830187612616565b6136c16020830186612616565b6136ce6040830185612969565b81810360608301526136e08184613666565b905095945050505050565b6000815190506136fa81612437565b92915050565b60006020828403121561371657613715612401565b5b6000613724848285016136eb565b91505092915050565b600061373882612581565b91507fffffffffffffffffffffffffffffffffffffffffffffffffffffffffffffffff82141561376b5761376a613248565b5b600182019050919050565b600061378182612581565b915061378c83612581565b92508261379c5761379b6131e8565b5b828204905092915050565b7f4552433732313a206d696e7420746f20746865207a65726f2061646472657373600082015250565b60006137dd6020836124d1565b91506137e8826137a7565b602082019050919050565b6000602082019050818103600083015261380c816137d0565b9050919050565b7f4552433732313a20746f6b656e20616c7265616479206d696e74656400000000600082015250565b6000613849601c836124d1565b915061385482613813565b602082019050919050565b600060208201905081810360008301526138788161383c565b905091905056fea26469706673582212201c48a168b916694e0324562e3b5477bf23e61657d081052b28c7466fc72c5b0c64736f6c63430008080033",
  "devdoc": {
    "kind": "dev",
    "methods": {
      "approve(address,uint256)": {
        "details": "See {IERC721-approve}."
      },
      "balanceOf(address)": {
        "details": "See {IERC721-balanceOf}."
      },
      "getApproved(uint256)": {
        "details": "See {IERC721-getApproved}."
      },
      "isApprovedForAll(address,address)": {
        "details": "See {IERC721-isApprovedForAll}."
      },
      "name()": {
        "details": "See {IERC721Metadata-name}."
      },
      "owner()": {
        "details": "Returns the address of the current owner."
      },
      "ownerOf(uint256)": {
        "details": "See {IERC721-ownerOf}."
      },
      "renounceOwnership()": {
        "details": "Leaves the contract without owner. It will not be possible to call `onlyOwner` functions anymore. Can only be called by the current owner. NOTE: Renouncing ownership will leave the contract without an owner, thereby removing any functionality that is only available to the owner."
      },
      "safeTransferFrom(address,address,uint256)": {
        "details": "See {IERC721-safeTransferFrom}."
      },
      "safeTransferFrom(address,address,uint256,bytes)": {
        "details": "See {IERC721-safeTransferFrom}."
      },
      "setApprovalForAll(address,bool)": {
        "details": "See {IERC721-setApprovalForAll}."
      },
      "supportsInterface(bytes4)": {
        "details": "See {IERC165-supportsInterface}."
      },
      "symbol()": {
        "details": "See {IERC721Metadata-symbol}."
      },
      "tokenURI(uint256)": {
        "details": "See {IERC721Metadata-tokenURI}."
      },
      "transferFrom(address,address,uint256)": {
        "details": "See {IERC721-transferFrom}."
      },
      "transferOwnership(address)": {
        "details": "Transfers ownership of the contract to a new account (`newOwner`). Can only be called by the current owner."
      }
    },
    "version": 1
  },
  "userdoc": {
    "kind": "user",
    "methods": {},
    "version": 1
  },
  "storageLayout": {
    "storage": [
      {
        "astId": 1005,
        "contract": "contracts/RandomIpfsNft.sol:RandomIpfsNft",
        "label": "_name",
        "offset": 0,
        "slot": "0",
        "type": "t_string_storage"
      },
      {
        "astId": 1007,
        "contract": "contracts/RandomIpfsNft.sol:RandomIpfsNft",
        "label": "_symbol",
        "offset": 0,
        "slot": "1",
        "type": "t_string_storage"
      },
      {
        "astId": 1011,
        "contract": "contracts/RandomIpfsNft.sol:RandomIpfsNft",
        "label": "_owners",
        "offset": 0,
        "slot": "2",
        "type": "t_mapping(t_uint256,t_address)"
      },
      {
        "astId": 1015,
        "contract": "contracts/RandomIpfsNft.sol:RandomIpfsNft",
        "label": "_balances",
        "offset": 0,
        "slot": "3",
        "type": "t_mapping(t_address,t_uint256)"
      },
      {
        "astId": 1019,
        "contract": "contracts/RandomIpfsNft.sol:RandomIpfsNft",
        "label": "_tokenApprovals",
        "offset": 0,
        "slot": "4",
        "type": "t_mapping(t_uint256,t_address)"
      },
      {
        "astId": 1025,
        "contract": "contracts/RandomIpfsNft.sol:RandomIpfsNft",
        "label": "_operatorApprovals",
        "offset": 0,
        "slot": "5",
        "type": "t_mapping(t_address,t_mapping(t_address,t_bool))"
      },
      {
        "astId": 1993,
        "contract": "contracts/RandomIpfsNft.sol:RandomIpfsNft",
        "label": "_tokenURIs",
        "offset": 0,
        "slot": "6",
        "type": "t_mapping(t_uint256,t_string_storage)"
      },
      {
        "astId": 874,
        "contract": "contracts/RandomIpfsNft.sol:RandomIpfsNft",
        "label": "_owner",
        "offset": 0,
        "slot": "7",
        "type": "t_address"
      },
      {
        "astId": 3156,
        "contract": "contracts/RandomIpfsNft.sol:RandomIpfsNft",
        "label": "s_requestIdToSender",
        "offset": 0,
        "slot": "8",
        "type": "t_mapping(t_uint256,t_address)"
      },
      {
        "astId": 3158,
        "contract": "contracts/RandomIpfsNft.sol:RandomIpfsNft",
        "label": "s_tokenCounter",
        "offset": 0,
        "slot": "9",
        "type": "t_uint256"
      },
      {
        "astId": 3165,
        "contract": "contracts/RandomIpfsNft.sol:RandomIpfsNft",
        "label": "s_dogTokenUris",
        "offset": 0,
        "slot": "10",
        "type": "t_array(t_string_storage)3_storage"
      }
    ],
    "types": {
      "t_address": {
        "encoding": "inplace",
        "label": "address",
        "numberOfBytes": "20"
      },
      "t_array(t_string_storage)3_storage": {
        "base": "t_string_storage",
        "encoding": "inplace",
        "label": "string[3]",
        "numberOfBytes": "96"
      },
      "t_bool": {
        "encoding": "inplace",
        "label": "bool",
        "numberOfBytes": "1"
      },
      "t_mapping(t_address,t_bool)": {
        "encoding": "mapping",
        "key": "t_address",
        "label": "mapping(address => bool)",
        "numberOfBytes": "32",
        "value": "t_bool"
      },
      "t_mapping(t_address,t_mapping(t_address,t_bool))": {
        "encoding": "mapping",
        "key": "t_address",
        "label": "mapping(address => mapping(address => bool))",
        "numberOfBytes": "32",
        "value": "t_mapping(t_address,t_bool)"
      },
      "t_mapping(t_address,t_uint256)": {
        "encoding": "mapping",
        "key": "t_address",
        "label": "mapping(address => uint256)",
        "numberOfBytes": "32",
        "value": "t_uint256"
      },
      "t_mapping(t_uint256,t_address)": {
        "encoding": "mapping",
        "key": "t_uint256",
        "label": "mapping(uint256 => address)",
        "numberOfBytes": "32",
        "value": "t_address"
      },
      "t_mapping(t_uint256,t_string_storage)": {
        "encoding": "mapping",
        "key": "t_uint256",
        "label": "mapping(uint256 => string)",
        "numberOfBytes": "32",
        "value": "t_string_storage"
      },
      "t_string_storage": {
        "encoding": "bytes",
        "label": "string",
        "numberOfBytes": "32"
      },
      "t_uint256": {
        "encoding": "inplace",
        "label": "uint256",
        "numberOfBytes": "32"
      }
    }
  }
}